:020000040000FA
:0600000002011D023ABFDF
:0300130002305464
:03001B000225EECD
:03002B000225D2D9
:030033000225B4EF
:03005300023B323B
:03006B0002255417
:03007B0002258DCE
:10008300023973E5C754F84401F5C779012200002A
:100093000080FB120086B90003020107E47921788E
:1000A30008B800028004F709D8FCE479297802B87B
:1000B30000028004F709D8FCE490070178D5790A97
:1000C3008002F0A3D8FCD9FA781A90014D7A01BACC
:1000D30000028007E493A3F608DAF99010D5AA8208
:1000E300AB8390014E78F579048015E493A3AC8239
:1000F300AD838A828B83F0A3AA82AB838C828D83A8
:10010300D8E9D9E7758214758384740412012F75B5
:100113008291758300740012012F75D00075813FA1
:10012300751801751907759F00020096C09FF59F0A
:10013300E473D09F22D083D082C09FE493C0E07445
:100143000193C0E0740293F59F2201FFFF020202B4
:10015300020202020202010D0000001001024F8997
:100163000100002189025389010000D7100235895B
:100173000100001E07025389010000D810023789CD
:100183000100001A87025389010000D9100239893E
:10019300010000F186025389010000DA10023B8955
:1001A3000100008C85025389010000DB10023D89A8
:1001B3000100007A85025389010000DC10023F89A7
:1001C3000100009E85025389010000DD100243896E
:1001D3000100006885025389010000DE1002458991
:1001E300010000FF86025389010000DF10024789E6
:1001F300010000E01001E803053F1001FF0001309A
:10020300750302010600000000000000000000006A
:1002130000000000000000000000000000000000DB
:1002230000FFFF0600800CE8031109E699BAE88392
:10023300BDE4BA91E99481484953530512500050E3
:1002430000020A000D09E699BAE883BDE4BA91E910
:100253009481051250005000020A000201060502B3
:100263000000F0FF09FF0D000000000000005369CB
:100273006D706C6520424C452050657269706865ED
:1002830072616C0B0B010102030405060708090ADE
:100293000B0C0D0E0F10D4F51378E79DBC0900006D
:1002A300C809CE09C2090A43686172616374657241
:1002B3006973746963203100024368617261637416
:1002C30065726973746963203200084368617261FF
:1002D30063746572697374696320330010436861E2
:1002E30072616374657269737469632034000643D1
:1002F3006861726163746572697374696320350040
:10030300164368617261637465726973746963200B
:100313003600164368617261637465726973746948
:1003230063203700024F890100001E8902538901AF
:1003330000003012022B89030000AD0B0255890126
:10034300000031120253890100004212022989017F
:100353000000AE0B025589010000431202538901CC
:1003630000005412022789020000AF0B02558901D5
:10037300000055120253890100006612022D890004
:100383000000B00B025789030000B10B025589012D
:1003930000006712025389010000781202338903B7
:1003A3000000B70B0255890100007912025389013D
:1003B30000008A12024989030000C70B0257890310
:1003C3000000D80B0255890100008B1202538901EA
:1003D30000009C12024189030000DE0B02578903CF
:1003E3000000F30B0255890100009D12FF0000B4C9
:1003F300000028002800283075A000A000A000A05D
:100403000000080008E001F00010001000100010C8
:10041300001000100050005000500010001000D0D9
:10042300070000000000000F000100050030750701
:10043300001000010081FF0000FF140C320C1A0CA5
:10044300FF02020208025000A0000000E803024F6E
:10045300890100002489025389010000CB1302594A
:10046300890100002A0C025389010000CC13025BAE
:1004730089010000400C025389010000CD13025D85
:1004830089010000420C025389010000CE13025F70
:1004930089080000430C025389010000CF13026155
:1004A30089010000D013FF0100FF20024F890100E2
:1004B3000018890253890100003414026389000083
:1004C300000000025789030000900C02120212027E
:1004D3001202120212021202120212021202120279
:1004E30012021202129014A8148A14010000006D63
:1004F3004EC6413930000030313233343536373867
:100503003941424344454600286E756C6C20706F38
:10051300696E74657229003F3F3F000000807F00D1
:1005230000803FF9021550B743BA51000020410043
:10053300E7DB2E0000A040100000000800000012BE
:10054300013820D60312013880D703120138B7D9F6
:1005530003120138E1D903120138AC9203120138B6
:10056300B69203120138F792031201384093031233
:1005730001387A9303120138D09303120138F193AF
:1005830003120138A09603120138A9960312013809
:10059300FD96031201382697031201383097031290
:1005A30001389E97031201382E9803120138899857
:1005B30003120138B798031201383F990312013827
:1005C3007E9903120138B39903120138C5990312B6
:1005D3000138E49903120138ED9903120138B49AF2
:1005E3000312013851FC0312013849EA031201389E
:1005F3007FEA03120138B3EA0312013800EC031255
:1006030001381982041201382F8204120138398209
:1006130004120138838204120138B58304120138AD
:100623002EC10312013841C10312013802C2031261
:10063300013841C2031201385EC20312013897C266
:1006430003120138E4C20312013816C3031201383E
:100653004DC30312013856C5031201385CF6031269
:1006630001387FF603120138AEF60312013846F75C
:10067300031201385EF703120138A0F703120138A1
:10068300E9F703120138008004120138358004129F
:1006930001386180041201386D800412013885E04D
:1006A30003120138AAE003120138D4E0031201381F
:1006B30086F10312013892F1031201389DF10312FE
:1006C3000138A0F1031201386BF2031201386DF205
:1006D3000312013884F203120138B8F2031201380D
:1006E300CDF203120138DEF203120138F2F20312E3
:1006F300013802F3031201381CF303120138C284D8
:10070300041201385CBB011201383ABD01120138F1
:10071300D9BE0112013884BF0112013804C001128D
:10072300013889C001120138B2C00112013804C175
:1007330001120138DFC40112013856C50112013814
:100743006DC601120138A7C601120138E8C60112AD
:1007530001382FC80112013885C801120138CEC8EB
:10076300011201383DC901120138A9C9011201382A
:10077300DAC901120138F2C9011201380BCB011297
:1007830001381BCB01120138D1CC01120138E8CC5E
:10079300011201381ACD01120138BCCE0112013801
:1007A30050CF011201383B7F001201384C7F0012F9
:1007B300013844FA031201387CFA031201389DFA16
:1007C30003120138DFFA0312013845FB0312013823
:1007D300D9860412013836FE0312013846FE03128D
:1007E300013858FE031201380AFF031201384FFB88
:1007F30003120138D4FB0312013838FC0312013809
:10080300C8F403120138EAF40312013804F50312A1
:1008130001385BF50312013873F5031201389AF5B9
:1008230003120138A3F50312013808F60312013845
:100833003AEC0312013865EC03120138E2EC0312BF
:1008430001380CED0312013864ED03120138BFEDDA
:10085300031201380EEE0312013811EE03120138B0
:100863002886041201384D8604120138C386041207
:100873000138D38604120138D68604120138D38096
:10088300041201381E8104120138F87F0012013866
:1008930006E8031201389FE90312013800EA031244
:1008A300013846EA03120138F37F00120138EA8661
:1008B3000412013830F30312013882F303120138B2
:1008C300F5F30312013862F403120138BFE5031292
:1008D3000138E9E503120138B8E60312013894E759
:1008E30003120138E29A03120138A79B031201385D
:1008F300E89B03120138229C03120138809C0312E7
:100903000138D49C03120138329D03120138C89D6B
:1009130003120138D09E031201385AA00312013882
:10092300F8A0031201385FA10312013872A1031268
:10093300013866A203120138AFA203120138C6D6EA
:1009430002120138F8D90212013889DB0212013888
:10095300E0DB02120138FDDB021201387DDC0212FA
:100963000138F9DD02120138C8DE0212013835E21E
:10097300021201381FE302120138C4410012013888
:10098300DB4100120138C04200120138FD4200125F
:100993000138314300120138664300120138034421
:1009A300001201381B4400120138FB4500120138C4
:1009B3008F4800120138354F0012013831580012A8
:1009C3000138B759001201383566001201389466B0
:1009D30000120138276700120138726800120138CB
:1009E3003AB10312013895B103120138B2B10312BF
:1009F300013801B3031201387EB30312013828B45E
:100A03000312013851B50312013805B70312013837
:100A130013B703120138D3EF03120138EAEF0312BD
:100A2300013819F00312013852F0031201387AF039
:100A330003120138A8F003120138BFF00312013882
:100A4300D6F003120138ECF00312013813F103124C
:100A5300013826F1031201383CF1031201384FF13A
:100A63000312013874F103120138008003120138B4
:100A7300FF800312013834810312013855810312B8
:100A8300013865810312013886810312013892828D
:100A9300031201385F8303120138D2830312013832
:100AA3005884031201389B8403120138D284031241
:100AB30001385885031201382A86031201388886C3
:100AC30003120138A086031201381A870312013872
:100AD3001D8703120138208703120138C7870312C9
:100AE3000138DF87031201380F88031201382F887A
:100AF300031201381D8903120138D3890312013807
:100B030086BC03120138AEBC03120138DCBC0312ED
:100B1300013813BD031201387BBD03120138C4BD74
:100B2300031201380FBE031201384DBE0312013800
:100B33008ABE03120138B8BE031201385FBF031225
:100B4300013869BF0312013876BF03120138A9BF08
:100B5300031201386BC00312013877C00312013846
:100B63008FC00312013899C00312013810FF03121A
:100B730001381EFF0312013836FF031201384EFFFE
:100B8300031201385D8F02120138FB8F0212013804
:100B9300739002120138889102120138C291021235
:100BA30001386B9202120138409302120138A49467
:100BB30002120138FB9402120138829502120138A5
:100BC300699602120138B69602120138449702124E
:100BD30001386897021201383D99021201387E9953
:100BE30002120138A09902120138219A0212013827
:100BF3000B9B02120138D19B021201382EAA031259
:100C0300013800AB03120138A9AB03120138ECAB76
:100C13000312013879AC0312013805AD0312013810
:100C2300E6AD0312013815AE0312013811AF0312FA
:100C3300013859AF031201385BB0031201389FB07A
:100C430003120138C5B003120138AF820412013810
:100C53004FD20312013865D2031201388BD203122B
:100C63000138B3D303120138BDD30312013816D5AB
:100C73000312013816D60312013860B70312013884
:100C830095B803120138C8B80312013812B9031218
:100C93000138D0BA03120138008002120138638090
:100CA30002120138A88102120138B88102120138F8
:100CB300DB8102120138268202120138CB82021232
:100CC3000138C183021201388B8402120138038672
:100CD30002120138458602120138E38602120138F6
:100CE30030870212013856870212013844890212F2
:100CF30001384989021201382A8B021201387E8B8E
:100D030002120138E08B02120138088C02120138FA
:100D1300AC8C021201386E8D021201389F8D0212C3
:100D23000138A28D02120138EA8D021201382C8E8D
:100D330002120138938E0212013869E3031201385B
:100D43007CE30312013895E303120138E0E3031255
:100D53000138BBE4031201384AE50312013895E573
:100D6300031201386A8901120138768901120138A8
:100D7300AF8901120138F48901120138AB8A0112DB
:100D83000138318B01120138968B01120138C28B65
:100D930001120138FB8B011201380F8E0112013849
:100DA300EB8F01120138D691011201380D93011214
:100DB30001386D95011201385996011201389F9738
:100DC30001120138AC9801120138C9980112013897
:100DD3000199011201381B990112013883990112FB
:100DE30001381D9E01120138BE9E011201380F9F6A
:100DF30001120138369F01120138849F0112013814
:100E0300A29F01120138F69F01120138CFA00112EF
:100E1300013856A201120138DEA20112013855FB36
:100E2300021201385FFB021201382AFC0212013858
:100E330045FC021201386BFC02120138AFFC0212AE
:100E43000138E7FC0212013810FD0212013889FD56
:100E5300021201389EFD02120138B3FD021201385D
:100E6300EAFD02120138FEFD021201382FFE0212C2
:100E7300013869FE0212013895FE02120138DAFECA
:100E8300021201383FFF0212013888FF02120138B3
:100E9300B2FF02120138D7FF0212013863CE0312E8
:100EA30001382DCF0312013810D00312013886D038
:100EB30003120138C8D003120138F5D103120138E7
:100EC300B5E302120138DEE302120138F7E302123E
:100ED30001383CE5021201381AE60212013839E6FC
:100EE30002120138C6E60212013809E7021201387C
:100EF30056E802120138F5E80212013874EB0212C7
:100F030001380BEC02120138DFEC02120138C1ED9B
:100F1300021201382DEF02120138C0EF021201381C
:100F23002FF90312013898F903120138ECF903126F
:100F3300013813FA03120138C2C5031201382FC650
:100F4300031201387AC6031201386FC7031201383E
:100F53006BC80312013855C9031201383E8A0312C4
:100F63000138808A031201385A8B03120138338CFB
:100F7300031201382E8D031201380D8E031201382E
:100F8300798E03120138408F03120138AB8F03129D
:100F930001381290031201383D9003120138AE90CC
:100FA30003120138419103120138AA910312013847
:100FB300BF910312013807920312013820920312E2
:100FC30001388592031201388892031201388BDDB0
:100FD30003120138B3DD03120138F1DD03120138C6
:100FE300AFDE031201381ADF0312013836DF0312B2
:100FF30001385EDF031201388EDF031201389DDFF3
:101003000312013817E0031201383DE003120138DF
:1010130084AC0212013861AE021201385CB00212D4
:1010230001382FB1021201387AB102120138C5B169
:1010330002120138D7B10212013817B20212013875
:101043004CB20212013898B202120138C7B202122E
:101053000138EAB20212013837B302120138C0B3C1
:1010630002120138CDB502120138B8B702120138A5
:10107300FBB70212013860B902120138A1B902129A
:10108300013814BA0212013860BA021201388BBA5D
:1010930002120138C0BA021201388EF3011201386C
:1010A300B9F301120138A0FA01120138C4FC01128C
:1010B30001387FFE01120138DCFF0112013845A31C
:1010C30001120138DCA30112013809A4011201380D
:1010D3004FA4011201388EA50112013825A7011270
:1010E30001389FA701120138BAA7011201382FA8AE
:1010F300011201385EA901120138B9AA011201389F
:10110300BBAB0112013818AD0112013831AD011228
:1011130001388EAD0112013870AE01120138A3AE51
:101123000112013813AF011201388DAF01120138DA
:10113300DCAF01120138A8B001120138ADB10112C0
:1011430001388CB20112013817B30112013885B38B
:1011530001120138F9B30112013822B40112013826
:10116300E1B4011201385BB60112013878B60112FD
:10117300013897B60112013828B7011201384DB76B
:101183000112013875B701120138F0B701120138A5
:101193004AB8011201389EB9011201385BBA011233
:1011A30001382EBB01120138EBBA021201383BBBE6
:1011B3000212013847BB0212013824BC0212013863
:1011C30054BC021201388CBC0212013806BD021253
:1011D300013888BD02120138C0BD0212013812BEA7
:1011E300021201384FBE0212013874C002120138D4
:1011F300A0C2021201389BC40212013876C6021241
:101203000138F57F001201388ECF01120138D8CF93
:1012130001120138B7D50112013838D7011201384C
:1012230097DD0112013892DE01120138CFDE01127F
:101233000138F2DE0112013834DF011201383DDFDB
:101243000112013847DF0112013833E0011201387E
:1012530027E101120138F668001201386E7300129B
:101263000138747300120138807A00120138EED904
:101273000312013884DA031201389ADA03120138AF
:1012830014DB031201386ADB03120138A8DB0312F3
:10129300013805DC0312013882DC031201388BDCD0
:1012A3000312013897DC03120138AADC0312013858
:1012B300E6DC03120138FCDC031201385BDD0312A8
:1012C300013817CA0312013824CA031201383ECA6F
:1012D300031201387DCA03120138BBCA0312013855
:1012E30020CB0312013835CB0312013840CB031254
:1012F30001384DCB0312013864CB0312013872CB92
:10130300031201387DCB0312013889CB0312013854
:1013130098CB03120138A3CB03120138C6CB0312B7
:1013230001386FCC031201387FCC0312013899CCFA
:1013330003120138B6CC03120138D2CC03120138A0
:10134300F7CC0312013801CD0312013815CD031276
:10135300013834CD0312013895CD031201389BCDEA
:1013630003120138A1CD03120138A7CD03120138AE
:10137300B3CD03120138E6CD031201383CC9021282
:101383000138BEC90212013867CA02120138AFCB55
:1013930002120138BDCD02120138A3CE0212013868
:1013A300D8CE02120138FACE02120138A3CF0212AC
:1013B300013873D1021201389CD10212013814D2C0
:1013C3000212013846D20212013853D202120138F6
:1013D3009ED202120138C2D20212013813D5021270
:1013E30001381DD60212013879D602120138069E41
:1013F30002120138179F02120138FB9F02120138B3
:1014030005A00212013827A00212013833A00212EC
:101413000138D7A10212013804A2021201381AA31B
:10142300021201386FA302120138BEA4021201385E
:1014330093A502120138EFA5021201385AA602122F
:1014430001388FA602120138D2A6021201389CA9D4
:1014530002120138B4A90212013845AA0212013856
:1014630053AA02120138A0AA02120138AEAA02122C
:1014730001381AAB0212013895AB02120138ECABFA
:101483000212013837F00212013859F00212013802
:101493006AF20212013829F50212013853F60212D8
:1014A300013811F702120138FDF7021201381AEE62
:1014B300031201383FEE03120138B5EE031201386F
:1014C30011A3031201381AA30312013823A3031231
:1014D3000138FBA303120138ACA503120138DCA5C4
:1014E3000312013807A60312013837A60312013885
:1014F30062A60312013896A603120138C2A603128C
:10150300013805A70312013830A70312013877A762
:1015130003120138CCA7031201380EA803120138B5
:1015230068A80312013893A803120138E2A8031232
:10153300013812A9031201383DA9031201386BA91E
:10154300031201388EA903120138388304120138BB
:101553006483041201389183041201389B830412BB
:101563000138AB83041201386C8404120138A78557
:1015730004120138508604120138608504120138C0
:10158300798104120138A38104120138E7FF0312A1
:101593000138ED85041201387D8604120138A586D1
:1015A3000412013818850412013848FD031201386A
:1015B300ECF70312013831F8031201383FE301124B
:1015C30001385DE801E066701008A3E066700A0860
:1015D300A3E066700408A3E06622C008C3E096F5A2
:1015E3000808A3E096420808A3E096420808A3E08F
:1015F300964208A2D265D033E5087001D3D0082201
:10160300C3E7960809E7960809E7960809E79622CB
:10161300C3E09608A3E09608A3E09608A3E0962209
:10162300C008C3E096F50808A3E096420808A3E0C3
:1016330096420808A3E09645087001D3D008220813
:101643000808E630E711121F6612165A080808C682
:101653004480C618181822181818E9799EC608CAB3
:10166300C608CBC608CCC6C370207996CACBCC704B
:1016730019798ECBCC70137986CC700EF9802ACA77
:1016830033CACB33CBCC33CC331930E7F2CCCBCA10
:101693003350147004EA30E00DE4CA3ACACB3BCBB2
:1016A300CC3CCC500209C3E913C6CC182313C6CBD8
:1016B30018C6CA18C6F9221216FA20F01430E72BFE
:1016C30074FFFCFBFA747F8022E4FCFBFA748080D5
:1016D3001AB48008BC00F2BB00EF800F50EBF9E4B2
:1016E300C39AFAE49BFBE49CFCE499C6CC18C6CBF2
:1016F30018C6CA18C6F922E4C9C608CAC608CBC6A2
:10170300D3330308CCC63392F0C3947F402E94188E
:101713004019C9B90704CACBCC225025C309CA331F
:10172300CACB33CBCC33CC33D9F422F4600DC9CC40
:10173300C313CB13CBCA13CAD9F6CC22E4FCFBFAEE
:101743002214FCFBFA22E6C3331846184618462235
:10175300E7C33319471947194722181818E60846EB
:1017630008700AE608C3337005E633F42208221929
:101773001919E7094709700AE709C3337005E73305
:10178300F4220922E6084608C3134608336002E63A
:1017930033F422E7094709C3134709336002E733E8
:1017A300F4221217876025121796602012174970CA
:1017B30003021753080808E76670101819E76670E4
:1017C3000A1819E76670041819E76622F42212173B
:1017D30087601C1217966017121749700712175368
:1017E3007001D322C0D01217537006D0D0B322C3D6
:1017F3002233D0D0501430E0F6C3E7960809E796B9
:101803000809E7960809E796B32220E0D5E697088A
:1018130009E6970809E6970809E697B3221217879E
:10182300601B121796601612174970071217536040
:101833000CB322C0D01217537005D0D022C3223369
:10184300D0D0501330E0EBC3E7960809E7960809B8
:10185300E7960809E7962220E0E4E6970809E69769
:101863000809E6970809E6972200121787604F12C6
:1018730017966012E7548066F612175D70111217FF
:1018830053703B090909F4F618F618F618F62212F4
:101893001772701512174908080860EAE6447FF6C4
:1018A30018768018E4F618F62212174960161217F4
:1018B300537012E4F608F608F608E65480F60909B0
:1018C3000918181822EAC0E0EBC0E0ECC0E0EDC054
:1018D300E0E687F0A4FBACF008E687F0A42CFCE478
:1018E30035F0FA1809E687F0A42C4B60027401CA9C
:1018F30035F0FCE433FB09E687F0D2F7A42CCB35B3
:10190300F0FC1908E687F0A42BCC35F0FBE433FD9B
:101913000819E687F0D2E7A42C4ACB35F0CD340082
:10192300FC09E687F0D2E7A42DCC35F0FDE433FAC9
:101933000918E687F0D2F7A42CCD35F0CA3400FCA1
:1019430008E687F0D2E7D2F7A42ACC35F07A7E20D6
:10195300E70B0ACB33CBCD33CDCC33CC33CB3350A6
:10196300147004ED30E00ED2F1E4CD3DCDCC3CCC8F
:101973003B5005DA05C2F1EB547FC63308E63392D8
:10198300F0FBE73309E733C39A502D2B70190C0D85
:101993004C4D70151806E608C333700D20F10AA2EA
:1019A300F013F6E418800B4024E4F630F00276805E
:1019B30018F618F618F68024D33B14501074FFA2BF
:1019C300F013F6187680E418F618F6800FA2F013D9
:1019D300F618E63303F618ECF618EDF6D0E0FDD072
:1019E300E0FCD0E0FBD0E0FA221217966046121713
:1019F30087603DE9687008F618F618F618F6227441
:101A03008067F7121A20090909748067F7221217F1
:101A130087601D1217967005191919801A12175D20
:101A2300701F121772C37003E66733191919400741
:101A33001818182208080874FFF618F618F618F68E
:101A4300221217726017121753702192F01217495E
:101A53007019501720F014080808090909E7F61847
:101A630019E7F61819E7F61819E7F622121749606D
:101A7300E6E869701F0808E62480F608E436F618DD
:101A8300547FB47F0CE654806007F6E418F618F62A
:101A930022181822E9C6CC08C6CD08C6CE08C6CF80
:101AA300C0E0E8C0E0EAC0E0EBC0E009E9F809E71C
:101AB300FA09E7FBE6F918E6F8C3EC98ED99EE9A14
:101AC300EBC2E7F5F0EFC2E795F0500E600CEBCFF9
:101AD300FBEACEFAE9CDF9E8CCF8EAA2E7D2E7FAD5
:101AE300EB33FB13F5F0EEA2E7D2E7FEEF33FFC5CE
:101AF300F013A2E730E601B313C5F0C3C0E0C0F0B2
:101B03007F00C39BFB605B9418600C401AD0E023FA
:101B1300F9D0E0F8021BEF8AF0E9486003D2F0E461
:101B2300AFF0FAF9F8803BEB30E40D89F0EA60039B
:101B3300D2F0E4AFF0F9CAF8EB30E30D88F0EF60D0
:101B430002D2F0AFF0E4CAC9F8EB54076014FBC348
:101B5300EA13FAE913F9E813F8EF135002D2E0FF9E
:101B6300DBEDD0E0C0E030E739C3E49FFFF5F0ECF4
:101B730098FC42F0ED99FD42F0EE9AFE42F0D0E07F
:101B8300F9D0E0F8E5F0607AE923F9EE20E742D8EE
:101B9300028067C3EF33FFEC33FCED33FDEE33FE1E
:101BA30080EAEC28FCED39FDEE3AFED0E023F9D0D3
:101BB300E0F84002801BC3EE13FEED13FDEC13FCB3
:101BC300EF135002D2E0FF08B800067F7F74FF8056
:101BD3002EEF3350178CF020F00260100CBC000C79
:101BE3000DBD00080EBE000408E860DFE933E8130A
:101BF300FFEE2313FE4F4D4C8008E95480FFE4FEB3
:101C0300FDFCEE33EF33F47004FCFD7E80D0E0FB8B
:101C1300D0E0FAD0E0F8D0E0CFC618CEC618CDC6D3
:101C230018CCC6F922121787700418181822121735
:101C330096700D74FFF61819F61819F61819F6228E
:101C4300E7548066F6121749700F12175370F01499
:101C5300F608F608F608F680D1121753700CF6084A
:101C6300F608768008E6447F80EC121775700C1234
:101C7300176060BFE65480F6E480BB1217607005FE
:101C830019191980A5E869700C763F18768018F643
:101C930018F6E8F922E6CDC0E018ECC0E0E633CD53
:101CA30033CDD313F6E719FCE7191933CC33C394B7
:101CB3007F400ECD9D502408E65480F6E418F6804C
:101CC3000FF4043D14501408E6447FF6187680E4BC
:101CD30018F618F6D0E0FCD0E0FD22CCD313CCFDEF
:101CE30018E4C6CBC0E018E4C6CAC0E00808ED0893
:101CF300C633E613F618E433C675F003C3CA97CAAE
:101D030009CB97CB199C40047D08802EBD000302AC
:101D13001DD116B6FF050606081618C3CA33CACB6B
:101D230033CB33CA27CA09CB37CB193CC37D0880D1
:101D33003E187D0820E75CC633C6CA33CACB33CB13
:101D430033DDF1D5F0EB30E77BCA97CA09CB974A6D
:101D5300CB199C406F4B7025E620E0218066187DEF
:101D630008C3CA97CA09CB97CB199CD3C633C6CA33
:101D730033CACB33CB3350C9DDE7D5F0E1D3E4C667
:101D830036C608C636C608C636C608C636C61818C6
:101D9300188031C3CA97CA09CB97CB199CB3409714
:101DA300C633C6CA33CACB33CB33DD34D5F02EC6E4
:101DB300A2E0C640C8CA27CA09CB37194A70BECBAE
:101DC3003CB480B90808E63308E633601F181818D6
:101DD300D0E0FAD0E0FBD0E0FCD0E0FD22187D0893
:101DE300CA27CA09CB37CB193CD3808013F618E432
:101DF300B67F11F618B6FF0EF618C60470D208089F
:101E0300768080CAF618F618F680C5080808EAC076
:101E1300E0EBC0E086F0E7A4FA180986F0E7A42A0D
:101E2300FA180986F0E7A42AFA180986F0E7A42A23
:101E3300FA1986F0E7A4FBE5F02AFA190886F0E719
:101E4300A42BFBE5F03AFA190886F0E7A42BFBE58F
:101E5300F03AFA18180986F0E7A4C5F02BFBE43A28
:101E6300FA1908E7C5F0C6A426F6E5F03BFBE43A09
:101E7300FA1886F0E7A4F6E5F00826F6E43B08F640
:101E8300E43A08F6D0E0FBD0E0FA22E4CFC0E0E485
:101E9300CEC0E0E4CDC0E0E4CCC0E075F020C3E602
:101EA30033F608E633F608E633F608E633F6181891
:101EB30018EC33FCED33FDEE33FEEF33FFC3EC9749
:101EC30009ED9709EE9709EF97191919400FFFECE0
:101ED30097FC09ED97FD09EE97FE191906D5F0BE9B
:101EE300ECF709EDF709EEF709EFF7191919D0E047
:101EF300FCD0E0FDD0E0FED0E0FF22121F691818ED
:101F030018121E8E121F5519191922121F5519194D
:101F130019080808E618181820E7E0121E8E121F89
:101F23006918181822090909E719191920E7DC08A3
:101F33000808E618181820E703021E8E121F6918F6
:101F43001818121E8E121F69181818121F55191906
:101F53001922E4C397F709E497F709E497F709E42B
:101F630097F722181818E4C396F608E496F608E4DF
:101F730096F608E496F6226016080808C6C313C648
:101F830018C613C618C613C618C613C6D5E0EA2268
:101F93007009080808226016181818C6C333C60843
:101FA300C633C608C633C608C633C6D5E0EA22E63A
:101FB30027F60809E637F60809E637F60809E6378B
:101FC300F622E026F608A3E036F608A3E036F60884
:101FD300A3E036F622E026F008A3E036F008A3E0FB
:101FE30036F008A3E036F022C3E697F60809E69731
:101FF300F60809E697F60809E697F622C3E096F095
:1020030008A3E096F008A3E096F008A3E096F02278
:10201300E056F608A3E056F608A3E056F608A3E058
:1020230056F622E056F008A3E056F008A3E056F077
:1020330008A3E056F022E0F608A3E0F608A3E0F6D2
:1020430008A3E0F622E6F008A3E6F008A3E6F0080A
:10205300A3E6F022E0FAA3E0FBA3E0FCA3E0FD2269
:10206300EAF0A3EBF0A3ECF0A3EDF022CAC0E0E6A4
:10207300F0A308DAFAD0E0FA22CAC0E0E0A3C582EE
:10208300CCC582C583CDC583F0A3C582CCC582C52B
:1020930083CDC583DAE6D0E0CA22CAC0E0E0A3C597
:1020A30082CCC582C583CDC583F0A3C582CCC5824E
:1020B300C583CDC583DAE6DBE4D0E0CA22C3E49866
:1020C300F8E499F91221018026C3E49AFAE49BFB10
:1020D300E920E7E9122101E498F8E499F922C3E43D
:1020E30098F8E499F9122101E498F8E499F9C3E422
:1020F3009AFAE49BFB22EB20E7CFE920E7E0B90063
:1021030010BB0008E88AF084F8AAF022E4FBC8FABE
:1021130022EB70227B10C833C8C933C9335007C3BD
:102123009AC3DBF280069A50012ADBEAC833F4C86B
:10213300C933F4C9FA2275F008E4C833C8C933C9EE
:1021430033C99AC99B5004C92AC93BD5F0ECFBC8D3
:1021530033F4C8E4C9FA22600D08C6A2E713C6180F
:10216300C613C6D5E0F322600C08C6C313C618C64F
:1021730013C6D5E0F422700422600D18C6C333C61B
:1021830008C633C6D5E0F41822251810AF08F51891
:10219300400215198008F51840021519D2AF22C064
:1021A300D0251810AF08F518500205198008F51846
:1021B30050020519D2AFD0D0222518F58210AF08EE
:1021C300F518400215198008F51840021519D2AF09
:1021D30085198322C5822518C582C583351910AF99
:1021E30007F5198582188007F519858218D2AFC5BE
:1021F30083222518F582E43519F58322E473251823
:10220300C582C0E0E51934FFC583C0E0E518C39576
:102213008224F810AF088583198582188008858386
:1022230019858218D2AFCEF0A3E520F0A37808E693
:1022330008F0A3DEFAEFF0A3E58124FAF8E608F04C
:10224300A3E608F0A3E608F0A30808E608F0A3E66F
:1022530008F0A315811581D0E0FED0E0F8158115B3
:10226300811581E8C0E0EEC0E0222518C582C0E0F8
:10227300E51934FFC583C0E0E518C3958224F9103E
:10228300AF0885831985821880088583198582188C
:10229300D2AFCEF0A3E520F0A37808E608F0A3DEE2
:1022A300FAEFF0A3E58124FBF8E608F0A3E608F0D3
:1022B300A30808E608F0A3E608F0A315811581D06A
:1022C300E0FED0E0F815811581E8C0E0EEC0E02221
:1022D300851983851882E0A3FEE0A3F5207808E042
:1022E300A3F608DFFAE0A3FFE0A3C0E0E0A3C0E0A9
:1022F300E0A3C0E0E0A3C0E0E0A3C0E010AF088526
:1023030082188583198008858218858319D2AFD0F6
:1023130083D082020135851983851882E0A3FEE00C
:10232300A3F5207808E0A3F608DFFAE0A3FFE0A313
:10233300C0E0E0A3C0E0E0A3C0E0E0A3C0E010AFD2
:10234300088582188583198008858218858319D2A8
:10235300AFD083D08222C0D02518C582C0E0E51952
:1023630034FFC583C0E0E518C3958224F310AF089A
:102373008583198582188008858319858218D2AFD1
:10238300C8F0A3E9F0A3EAF0A3EBF0A37908E70907
:10239300F0A3D8FAECF0A3EDF0A3EEF0A3EFF0A3D3
:1023A300D0E0F0A3D0E0F0A3D0E0F0A3E520F0A3C9
:1023B300E5F0F0A322851983851882E0C0E0A3E04D
:1023C300F9A3E0FAA3E0FBA37808E0F608A3DFFA99
:1023D300E0FCA3E0FDA3E0FEA3E0FFA3E0C0E0A3D5
:1023E300E0C0E0A3E0F5D0A3E0F520A3E0A3F5F07F
:1023F30010AF088583198582188008858319858223
:1024030018D2AFD082D083D0E0F8D0E03274048009
:1024130006740280027401C0E0F4041221BCD0E00F
:1024230012206F227404800474028000CCC0E0ED9B
:10243300C0E0E518C39CCCAD1950011D10AF068C4C
:10244300188D1980068C188D19D2AF12207CD0E01C
:10245300FDD0E0FC22D083D082E9C0E0E493A3C3A3
:1024630086F0C5F095F0F908E493A386F0C5F095DE
:10247300F0700BE493A3C3994005E9048002A3E43D
:1024830075F002A42582F582E5F03583F583D0E06B
:10249300F9E493A3C0E0E493C0E022D083D082ECBC
:1024A300C0E0EDC0E0E493A3FCE493A3FDED4C6036
:1024B3000D1224EAEC24FFFCED34FFFD80EFE493DE
:1024C300A3FCE493A3FDED4C600D122529EC24FF3E
:1024D300FCED34FFFD80EFD0E0FDD0E0FCE493A3FE
:1024E300C0E0E493C0E022C0E0C3E4939608740123
:1024F300939618400FE49366700808740193661866
:1025030070007019A3A3C3E49396087401939618FB
:10251300A3A3400DD0E0D0E0D0E00224DAA3A3A32C
:10252300A3A3A3D0E022C0E0C0F088F0E4936670D8
:10253300080874019366187000A8F0A3A3700BD069
:10254300F0D0E0D0E0D0E00224DAA3A3D0F0D0E0D2
:1025530022C0E074F2122359A2AFE433FED2AFE5F6
:102563008AA2E5500512084E800E9008DFE0640150
:1025730070065389EF85C0C0758A00C2C5751A00FD
:10258300EEA2E092AF7F010223B8C0E074F21223FF
:1025930059A2AFE433FED2AFE58AA2E04006E58A52
:1025A300A2E5500312084E758A00758A00C2EB80BB
:1025B300CCC0E074F2122359A2AFE433FED2AFE5EC
:1025C3008BA2E0500312084E758B00C2E880AEC0A8
:1025D300E0C0D0E8C0E0E5A8D2AFC2C7751A00A238
:1025E300E792AFD0E0F8D0D0D0E032C0E074EC1284
:1025F300235974DA12218CC28FE5F9FE74F56E60EB
:1026030008900914E064F5701D90094BE070179071
:102613000920E0F8741428F58274091236529009DF
:1026230020E0040226C290094BE070030226C36433
:10263300336023900975E0C394285012E0F8744C7A
:1026430028F5827409123652900975E004F0900956
:102653004BE06433706A9008DCE0701974F56E60C7
:102663000890092BE064F5700C9009751236D3902D
:102673000975E004F0900975E0F4704490097BE07B
:1026830004F0C394024002E4F090094A7401F07A22
:10269300008A08742B2508F874093400F9888289A4
:1026A30083A3A3A3A3E088828983F00AEAC3943FA8
:1026B30040DF9008DC7401F01206F2900975E4F033
:1026C30074F66E600302300890094BE064337003C4
:1026D300023008900950E0F8E4C8F9A3E0FAE9FBF6
:1026E30090094BE024D0602524FE70030228302497
:1026F300FE700302283524FE700302284424F6707A
:102703000302286824D0700302283C8025900975B1
:10271300E4F0900977E0701A7401F07A0F7B0012ED
:1027230006989088E81224277A007B081236F41260
:1027330021A290094BE06003023008900918E0F8E9
:10274300900915E014700302282A147003022CB5B3
:10275300147003022B7D147003022B851470030283
:102763002BA424FE7003022BAF147003022CB514A8
:102773007003022BBD24FE7003022BE024FA7003C6
:10278300022C0F147003022C4724F17003022C91C6
:1027930024FA7003022CE524F77003022D21147030
:1027A30003022D32147003022D44147003022D4CC6
:1027B300147003022D5A147003022D611470030266
:1027C3002D6624F67003022D6E147003022D761409
:1027D3007003022DA224FE7003022DBB24F47003A8
:1027E300022DF8147003022E43147003022E672483
:1027F300F27003022E6D147003022E7A24FE70030E
:10280300022E7F24FD7003022E8424F67003022E11
:1028130089147003022F1A24FE7003022FBA147056
:1028230003022F7A022FEB120986022FEB1206F80E
:102833008007EA4960031206DA900975E4F002277B
:1028430035900977E0640170F07402F07A107B0030
:102853001206989088581224277A007B041236F4C3
:102863001221A280D488087E02900975E0F88007BF
:102873002A12366662080E8E82AA82E824FFFCE4DE
:1028830034FFFDC3EA9CE49DA2D265D033744B4070
:10289300DF28F874093400F9E824FFF582E934FFEE
:1028A300F583E065086003022B7588828983E06401
:1028B300F66003022B7590094CE064F56003022B6C
:1028C30075A3E064406003022B75900977E0600311
:1028D300022B757900781012366070010908E8C37D
:1028E300941640F37406696003022B75790078002F
:1028F300123660641B7006740128F9800708E8C368
:10290300940A40EC7508008982AE82900BAA1236B5
:102913007C74B128F8740A39F9850882AA82EE2AF0
:10292300FCE43400FD744B2CF58274093DF583E01F
:10293300C0E0E82A123658A3A3A3A3D0E0F0050809
:10294300E508C3940B40C4750800850882AC82EC8B
:10295300C333FAE433FBEE2AFAE43BFB745D2AF556
:102963008274093BF583E0C0E0E82CFAE912303FBA
:1029730012365BD0E0F00508E508C3940540CB9020
:102983000BAAE004F0F8900AB3E0686003022B7529
:10299300900BAAE4F0F50BF50A804D0508900AB3F5
:1029A300E0F8E508C398503E750C0B750D00780CE4
:1029B300122414E50875F016A4F8A9F074B528FCE0
:1029C300740A39FDEE75F016A4F8A9F074B528FA67
:1029D300740A39FB12156874021221A28B0DEA45A1
:1029E3000D70B8750B01050A900AB3E0FA850A82E7
:1029F300AE8224FFF8E434FFF9C3EE98E499A2D23F
:102A030065D03350087401250AF5088090E50BA2C0
:102A1300E05003022B7574FF2AC3940A900AB15045
:102A23000F7401F0A3E4F09009D4E0900AB480039A
:102A3300E4F0A3F0750A00802F050BE50BC3940A9D
:102A4300404A740A650B701E7A008A0CE508250C4F
:102A5300F8E5093400F9E8240F12365874FFF00A38
:102A6300EAC3940640E4050A900AB3E0F8E50AC312
:102A7300984003022B57750B00E50A75F016A4F86E
:102A8300A9F074B128F508740A39F509E50B75F056
:102A930016A4F8A9F074D128FE740939FF750C0B3C
:102AA300750D00780C122414EE2404FCEF3400FDA1
:102AB300E5082404FAE5093400FB121568740212D0
:102AC30021A28B0DEA450D6003022A3C7C008C8217
:102AD300AA82E5082AF8E5093400F9E8240FF8E9A1
:102AE3003400F98882898374FFF0EE2AFAEF340008
:102AF300FBEA240FF582EB12366A88828983F00C95
:102B0300ECC3940640C8750E00850E82A882EE2899
:102B1300FAEF12303F12366AF50CE50828F8E5099A
:102B23003400F9E82415F582E912366A6005E50CEC
:102B3300F08013E50C600F9009C7E064016007AAF9
:102B43000C7B001206DA050EE50EC3940540030262
:102B53002A4580B5900977E070189009C7E06401B1
:102B630060109088D81224277A007B021236F41260
:102B730021A290094BE4F002283CC2A0438D21021C
:102B83002FEB538DDE7C007B007A007904120998C9
:102B93009088EC1224277A401236F21221A2022FD7
:102BA300EBD2A090097A7401F0022FEB7C007B003A
:102BB3007A007907120998022FEB900914E4F0E8E0
:102BC300700A7A277B871209DA022FEB74CA6870BE
:102BD300067AB07B8580EF7ACA7B8780E9E8900923
:102BE300C26013E064016003022FEB7A0E12301D02
:102BF3007AD37B8780D0E06401700C7A0D12301D8C
:102C03007A337B871209DA9009CA809A7A0D1230D7
:102C130012908601C08274061221F5AC82AD8375D1
:102C23008386D082741012207C74061221F5AC8244
:102C3300AD837A1079051209EC9088541224277A0F
:102C430008022B9B7A0E7B00120698D2A090862155
:102C5300C08274061221F5AC82AD83758386D0825F
:102C6300741012207C74061221F5AC82AD837A10A5
:102C730079051209EC9088541224277A081236F247
:102C83001221A279011206089088E4022B9690097A
:102C9300C9E4F0E860231236A240109088F01224B1
:102CA300277A007B201236F41221A27A117B0012BC
:102CB3000698900914E4022BAB538DDE9009D4E0FF
:102CC30064016006900978E070077A007B001206C1
:102CD30098900914E4F09008DB04F07A827B870271
:102CE3002BC9900BA81236A540109088F012242708
:102CF3007A007B201236F41221A27A11123012903C
:102D03000912F075081FF50978081224147C007D58
:102D1300007AF37B081235F31221A2022FEB9009FC
:102D23004B7430F07900120608438D20022FEB7D9F
:102D3300007C007B007A00790C1206C27A10022F05
:102D4300E690094B7432022BAB90094B7433F0437A
:102D5300FE08D293022FEB90094B743480F01206D5
:102D6300E080EC90094B7436022BAB90094B744016
:102D7300022BABE8900AB3F07508E07509007808F8
:102D83001224147C007D007AD17B091235F31221C1
:102D9300A27CD17D097AE079FA120932022FEBE89D
:102DA3006003022FEB9009C7E0640160059009C638
:102DB300E4F09009C7022CB87508E075090078089B
:102DC3001224147C007D007AD17B091235F3122181
:102DD300A290097B740FF09088D81224277A007B85
:102DE300401236F41221A27CD17D097AE079FA12DD
:102DF300092C022FEB908848C0828518828519839D
:102E0300AC82AD83758388D082740612207C8518CA
:102E130082851983AC82AD837A0679801209327C6C
:102E2300007B067A007970120998851882851983C8
:102E3300AC82AD837B067A0079701209A4022FEB72
:102E43007A008A82A88274EB28F582740812366AA3
:102E5300C0E0123049D0E0F00AEAC394064003020E
:102E63002FEB80DE120680022FEB7A087B0012061E
:102E730098900978022BA97A09022FE67A0C022F7F
:102E8300E67A16022FE67A008A82A882741028F561
:102E930082741212366AC0E0123049D0E0F00AEAB6
:102EA300C3941040E3908631C08274061221F5ACBE
:102EB30082AD83758386D082741012207C90864104
:102EC300741012207C1207CA53B38F74061221F5B3
:102ED300AA82AB831207BE74161221F5AA82AB83B2
:102EE3001207B875081075090078081224147508BC
:102EF3001075091278081224147C107D007A107B57
:102F0300121207C474041221A2E5B354F84402F563
:102F1300B343B301022FEB900917E09008DDF0757E
:102F2300F00A84A8F07403687016900912E4123052
:102F33003712099E7A077B00123028123028802628
:102F4300740268701975F00AE08475F00A84E5F07C
:102F5300640360D6900912E4F07A07FB80DD9009E0
:102F630012E4F07A0FFB1206989009D2E064016034
:102F730077900979022BA97A117B001206989009A0
:102F830012E4F012099E7A117B001206981236C9D8
:102F9300501A9008F4E4F0A3F0A3F090091204F09F
:102FA30012099E7A077B0012302E80377C007B004B
:102FB3007A00790D022BB7740168600D900912E451
:102FC300F09008DD12303780D79008DDE075F00A05
:102FD30084E5F060077A117B001206981236C3501D
:102FE300077A0F7B00120698900920E4F075080A0F
:102FF300F50978081224147C007D007A147B0912E9
:1030030035F31221A274261221A27F070223B87B73
:1030130000120698900914E4F0227B00120698909F
:1030230009C2E4F02212302E7B0022120698120904
:103033009E7A0722F07A07FB120698223400FBEAF5
:103043002415F582EB22741628F582740912365B77
:1030530022C0E074EF122359C28BE5C1FE74F56EF2
:103063007006900976E004F0900922E0F874316864
:103073006005742368705990092AE06401705190C7
:1030830009731236D3900973E0C3941F403F90092C
:103093004A7401F07C007BF2FA79321209987C2B96
:1030A3007D097BF27A0179321209A4900973E4F065
:1030B30090092A1236351224147C007D007A2B7B6A
:1030C300091235F31221A290094BE48002E004F0C7
:1030D30074F56E6008900921E064F570229009741C
:1030E300E0F8742128F5827409123652900974E0CD
:1030F300C39407400790092A74018002E004F0900A
:103103000922E064F5702B9009767401F075080AC2
:1031130075090078081224147C007D007A217B094C
:103123001235F31221A290092174F5F090097474F9
:1031330001F0900976E0C3940250030235E6438D13
:10314300209008E1E4F090094BF07A08FB12367303
:10315300900923E0F8900925E0F97A297B88900902
:1031630022E0146029147003023205147003023242
:103173003224F870030232A41470030233FD147076
:103183000302357A24CC70030235A50235C09008BA
:10319300DDE07037E970279008D6740112363E904F
:1031A30088F41224271236F01221A29088E8122400
:1031B300277A807B001236F41221A20235C0123620
:1031C300297A227B881209DA0235C0E9700D90084A
:1031D300D67401F09009C304F080C49008CFE4F0E2
:1031E3007C01FBFA79721209987A117B0012069816
:1031F3001236C340030235C07A0F7B0012069802D1
:1032030035C09008DDE0701CE970B39008D67402F5
:1032130012363E9088F41224271236F01221A2901F
:1032230088FC808AE970B49008D67402F080E49038
:1032330008DDE07060E970539008D67403F07508F8
:103243000275090078081224141235EB1221A21218
:1032530036859009C5F090097CF0A3E4F07A1B7BD6
:1032630088123643900923E012361DF090097774D3
:1032730002F09088F41224271236F01221A29088CB
:10328300581224277A007B040231B81236297A14A3
:103293007B880231C8E960030231DEE812361D8003
:1032A300D0900977E060799008DDE0707312366F93
:1032B300900977E4F0900925E0F87405686057E811
:1032C30070447A127B001206987A067B881209DA18
:1032D30090097CE0C0E090120D12367CA3E0FA74F2
:1032E300E62AFA74093400FBEA28F582EB39F58300
:1032F300D0E0F09009C87401F09088D81224277A9E
:10330300007B010231B87A131236AC70030235C068
:103313001236960235C07A111236AC70F30235C0FC
:10332300E9707712366F75F0649008DDE084F87405
:103333000168702D7C007B027A0079721236117954
:10334300721209A49009D2E06401602A7401F0901A
:1033530088D81224277A007B011236F41221A28026
:103363001574026870297C007B027A007974123626
:103373001179741209A475080275090078081224DA
:10338300147C007D007AD97B081235F31221A290B8
:1033930008DDE4F09008CF0235BF7A117B001206F6
:1033A300981236B8600312369675080275090078CC
:1033B300081224147C007D007AD97B081235F3129D
:1033C30021A275F0649008DDE084F8740168700A46
:1033D3007C017B007A007972800D740268700B7C2B
:1033E300017B007A0079741209989008CFE4F012F7
:1033F30036C340030235C00231FB9008DDE075F0AF
:103403000A84E5F06402705DE87006900924E060C8
:103413002175080275090078081224141235EB127D
:1034230021A21236E2797112360579711209A402CA
:1034330035C0900BA7E004F07C017B007A00797122
:10344300120998900BA7E0C3940540147A167B00E9
:103453001206989088F01224277A007B200231B854
:103463007A110231FD900977E06003023569E87053
:1034730009900924E0700302354E750802750900AE
:1034830078081224141235EB1221A2123685F89013
:1034930009C5F08882AE8212099E75080080090B67
:1034A300EBC39405402005089009D3E0F8E508C371
:1034B3009850697B00E50875F016A4F8A9F074D15B
:1034C30028F8740939F9EEFA8B0AE8250AFCE9347D
:1034D30000FDEC2415F582ED12366A6A70C1750998
:1034E30001900BA7E4F0A3F0E82404F50AE9340003
:1034F300F50B74046B70137C037B0B7A00792B122E
:1035030035F9792B1209A412099E7C037B0B7A00EF
:10351300792A1235F9792A1209A4808AE509A2E0E9
:1035230050030235C0900979E064017023750802E5
:1035330075090078081224141235EB1221A21236F1
:10354300E27931123605793102342F740869606DDE
:103553001236A250030234637C017B007A00792B7C
:1035630012099802344F640170539088541224272F
:103573007A007B080231B8E87006900924E0603DC8
:103583009008E1E4F09008DC1236351224147C0034
:103593007D007A2B7B091235F31221A290094BE4AB
:1035A300801AE970047C0080027CFF7B007A00793A
:1035B3003312099890094BE4F09008DCF053FEDFD6
:1035C300900974E4F0900976F0900922E064316088
:1035D3000590092AE4F0900921E4F0900914F09091
:1035E300094BF07F040223B87C007D007AC47B0979
:1035F300121574740222120998AC0AAD0B7B0B7A74
:1036030000221209987CC47D097B027A00221209E8
:10361300987CD97D087B027A00229008D9F0900922
:1036230024E09008DA22900977E4F07A13FB12067B
:103633009822F0750820F509780822F01236432203
:103643001209DA7C007B007A0079071209982212AA
:10365300365BEEF022F582E93400F58322880874A4
:103663004B2508F582740912365BE0227A007B044D
:103673009008CBE0F912064422E075F016A4F8A9ED
:10368300F02212368922900923E09009C4F09009B0
:1036930024E02290097CE0FAA3E0FB1206DA2290F0
:1036A3000BA7E004F0C39405227B001206987A0D61
:1036B3007B881209DA90097CE0F8A3E0F9E8492253
:1036C30012099E12099E9008D8E004F0C3940322C5
:1036D300E0F8742B28F582740912365BEEF022129F
:1036E30036899009C5F07C007B027A00227A107B30
:1036F300009008CBE0F912063874042274F5122204
:103703006DEAFEEBFFEE2434F8EF3400F988088904
:1037130009EE2435F582EF3400F583E0F8EE243723
:10372300F582EF3400F583E0F50AEC850AF0A4FC9A
:10373300AAF0850AF0EDA42AFDE82CF8E43DF97A15
:10374300257B00122101EA850882850983F054074D
:10375300F87401B800028004C333D8FCC0E0E0135E
:103763001313541FF8EE28F8EF3400F9E8245DF53D
:1037730082E93400F583D0E0F8E0586008EE2434A1
:10378300F582EF801EEE2436F582EF3400F583E0F8
:10379300F5F0EA84A8F0EE28F8EF3400F9E82438CD
:1037A300F582E93400F583E0F97F0402231974F507
:1037B30012226DEAFEEBFFEE2434F582EF3400F5BE
:1037C30083E0C0E0EE2435F582EF3400F583D0E0EA
:1037D300F08E828F83A3A3A3A3A3A3A3C082C083DA
:1037E3008E828F83A3A3A3A3A3E0F8A3E0F9D083DE
:1037F300D082E0C398F508A3E099F509EE2480F59B
:1038030082EF3400F583E064017069EE2481F58270
:10381300EF3400F583E0F8A3E0F98E828F83A3A34E
:10382300A3A3A3A3A3E0FCA3E0FD8E828F83A3A3A2
:10383300A3A3A3E0FAA3E0FBC3EA9CEB9D5027C339
:10384300EC98ED99402EC3EA98EB9950277C757D4F
:103853000EEEFAEFFB12115AEE2480F582EF3400DC
:10386300F583E4F0800EC3EA98EB9940E0C3EC984B
:10387300ED9950D9EE2434F8EF3400F9E8FCE9FD72
:10388300EE2435F582EF3400F583E0F8EE2437F5C6
:1038930082EF3400F583E0F50AE508850AF0A4F524
:1038A30008AAF0850AF0E509A42AF509E82508F82D
:1038B300E43509F97A257B00122101EA8C828D8394
:1038C300F05407F87401B800028004C333D8FCC075
:1038D300E0E0131313541FF8EE28F8EF3400F9E86F
:1038E300245DF582E93400F583D0E0F8E058600800
:1038F300EE2434F582EF801EEE2436F582EF340099
:10390300F583E0F5F0EA84A8F0EE28F8EF3400F947
:10391300E82438F582E93400F583E0F91241AD0279
:1039230037ACC082C083851882851983E0F8A3E091
:10393300F9C3EA9CEB9D5012C3EC98ED994019C36F
:10394300EA98EB99501279018010C3EA98EB9940F9
:10395300F5C3EC98ED9950EE7900D083D08222EA3A
:10396300C39CFAEB9DFB2200008521878522C6229A
:10397300C0E0C0D0E8C0E0E9C0E0EAC0E0EBC0E0EE
:10398300ECC0E0EDC0E0C008C009C00AC00BC082B3
:10399300C083C0F0759B00906182E0A2E640030201
:1039A3003A51E591A2E64003023A517591BF900D59
:1039B3003AE0640570081212981212A480031212DE
:1039C3009E7521001212FEE9900D3BF07900121250
:1039D300F21210D07A017B00900D39E0F91205BA8A
:1039E300907803E064426003023A9A900ED7E014A1
:1039F300F06003023A9AC2AF1239FE00782AD0E08F
:103A0300F618D0E0F6E59F5407F970059088888092
:103A1300039088847808122039E9C4C0E07829E645
:103A23005508F50808E65509F509740B78081221BD
:103A33006AD0E02508F8906270E0A2E740F8E8C396
:103A430033906272F0906270E0D2E0F08049E0A2BD
:103A5300E55024E591A2E5501E7591DF900D3AE003
:103A6300640D7013900D5CE004F064287002E4F0C0
:103A73007A00E0F9121370906181E0A2E35009E546
:103A8300E9A2E3500375E9F7A3E0A2E75009E59142
:103A9300A2E7500375917FD0F0D083D082D00BD0B2
:103AA3000AD009D008D0E0FDD0E0FCD0E0FBD0E0A4
:103AB300FAD0E0F9D0E0F8D0D0D0E032C0E0C0D006
:103AC300C082C083906183E0A2E05009E5BFA2E019
:103AD300500375BFFEE0A2E15009E5BFA2E1500328
:103AE30075BFFDE0A2E25009E5BFA2E2500375BF36
:103AF300FBE0A2E35009E5BFA2E3500375BFF7E083
:103B0300A2E45009E5BFA2E4500375BFEFE0A2E5CC
:103B13005009E5BFA2E5500375BFDFE0A2E65009F7
:103B2300E5BFA2E6500375BFBFD083D0828088C0B3
:103B3300E0C0D0E8C0E0E9C0E0EAC0E0EBC0E0EC00
:103B4300C0E0EDC0E0C0F0E5A7A2E6500FE5A1A2FA
:103B5300E6500953A7BF75A1BF123B97E5A7A2E59E
:103B6300500CE5A1A2E5500653A7DF75A1DFE5A739
:103B7300A2E15009E5A1A2E1500375A1FDE5A7A2C9
:103B8300E2500CE5A1A2E2500653A7FB75A1FBD0BE
:103B9300F0023AA874F812226D752101900D3AE0F3
:103BA3006406701512122C8A828B83A3A3A3A3A38A
:103BB300A3E0FAA3E0FB121286A2AFE433FED2AF76
:103BC300900D40E0640170187A207B00900D39E07D
:103BD300F91206447A207B00900D39E0F91205C0F2
:103BE300906182E0D2E6F0900ED6E0602185C62295
:103BF3008016900D3FE064017008E5C654F8440553
:103C0300F5C653BEFC12396C7401652160E4EEA263
:103C1300E092AF7F01022319008E238F248582282F
:103C2300858327851882851983E0CEA3E0CF852875
:103C330082852783EBC9EAC8EDCBECCA75F010C3C4
:103C4300E833C8E933C9EA33CAEB33CBC3EA9EF599
:103C530026EB9FF525B35004AB25AA26EC33CCED18
:103C630033CDD5F0DAAE23AF242274EB12226D7478
:103C7300FA12218C8A088B098C148D15900D3AE069
:103C830024F7C39405500690890C023DCF12122CE1
:103C93008A0A8B0BAE0AAF0BEE4F7003023DCCAC1E
:103CA30008AD09851882851983AA82AB831212B6DF
:103CB3008E828F83A3A378081220399088B4780862
:103CC300122013851882851983780C122039908865
:103CD300B4780C1220137808790C121603501F784D
:103CE30008790C121FEB9088687808121623404756
:103CF300850810850911850A12850B138041850CEF
:103D030010850D11850E12850F1378107908121F77
:103D1300EB9088687810121623501C7510007511EB
:103D2300007512007513017810790C121FEB7810CF
:103D33007908121FB2800890890C78101220397408
:103D4300097810121F93908864780812203978102C
:103D53007908121E8E8E828F83A3A3A3A3A3A3E04D
:103D6300F8A3E0F97AD07B0312210188088909E4DA
:103D7300F50AF50B78107908121FB274041221F5B5
:103D8300E0F8A3E0F97AD07B03122101E8FA8A086C
:103D9300E4F50978107908121603500778107908AA
:103DA300121FEB900D3AE06408600AE064066005B8
:103DB300E06405701C9088607810121623501290EE
:103DC300885C7810121FC580089088D8781012205C
:103DD30039851482851583781012204874061221C0
:103DE300A27F0E02231974F712226D1212C8900ECD
:103DF300D4E064017010906245E4F0A3F053F4F34F
:103E030043FE0C5390F3121274E5C654804449F5F3
:103E1300C6E59E547F644970F8906185740FF090F5
:103E23000ED2E0F47002A3E0604E900ED3E060087F
:103E330014601B14602E8040750801750900900EF4
:103E4300D2E07808122179E508F45280802A7508B7
:103E530001750900900ED2E07808122179E508F483
:103E630052908014750801750900900ED2E078080D
:103E7300122179E508F452A079007F020223197414
:103E8300F712226DE9FEEAFF74016E700C7A807BF3
:103E930000900D39E0F91205BA9041BCE493F46047
:103EA30008E493F91210C4800953C680E59E547F39
:103EB30070FA12127A900ED4E0640170031210DCCF
:103EC300900ED2E0F47002A3E0604B900ED3E0605A
:103ED3000814601A14602C803D7508017509009060
:103EE3000ED2E07808122179E5084280802875080F
:103EF30001750900900ED2E07808122179E5084295
:103F0300908013750801750900900ED2E0780812AD
:103F13002179E50842A01212C812122C8A088B09D3
:103F2300A808A909E8496015E5E170FCE82414F53F
:103F330082E93400F583E0F46003E0F5E174016F96
:103F4300700A7A01900D39E0F912060E023E7D7473
:103F5300F112226D8A088B098C0A8D0B740F1221C2
:103F6300F5780C1220399088B478081220139088C1
:103F7300B4780C1220137808790C121603501578B4
:103F830008790C121FEB90886878081216234015E5
:103F930079018013780C7908121FEB908868780CEC
:103FA30012162340EB79007F0802231974ED1222C5
:103FB3006D8A088B098C0A8D0B74131221F5780C0A
:103FC3001220399088B478081220139088B4780CA2
:103FD300122013780C790812160340117808790C13
:103FE300121FEBAA08AB09AC0AAD0B8022751000B7
:103FF3007511007512007513017810790C121FEBFF
:1040030078107908121FB2AA10AB11AC12AD137F4E
:104013000C0223199088B478081220398A828B8382
:1040230078081220267F0402231974F512226D8C5E
:10403300828D8378081220398A828B837808121F35
:10404300FFEA2404F8EB3400F98C828D83A3A3A345
:10405300A3E0FCA3E0FD88828983C3E09CF0A3E096
:104063009DF088828983C3E09420A3E0944E40228C
:1040730090888C78081220398A828B837808121FE3
:10408300D88A828B83A3A3A3A3E02420F0A3E034E4
:104093004EF0808074F512226DE9FE900E8CE0FAEA
:1040A300A3E0FBEEC333F8E433F9746128F58274BB
:1040B3008639F583E02AF508A3E03BF50978081271
:1040C3002414908890122057123C1C74021221A2CF
:1040D3008A088B098C0A8D0B74107808121F7AAA30
:1040E30008AB097F0402231974F112226D8A0C8B29
:1040F3000D8C0E8D0F740F1221F5E0FAA3E0FB7403
:10410300111221F5E0F508A3E0F50974131221F566
:10411300E0FEA3E0FF7808122414EA2401F508EB7B
:104123003400F509E4F50AF50B780C7908121E0E34
:104133009088947808122039780C7908121E0EAAF8
:104143000CAB0DAC0EAD0F123C1C74021221A28BF2
:1041530009EA450960047A0180027A00EC2AFCED41
:104163003400FDECF8EDF97A717B02122101880825
:104173008909E4F50AF50B8E828F837808122048AB
:10418300ECF8EDF97A717B021221018A088B09742C
:104193000578081221798E828F83A3A3A3A3E50850
:1041A300F0A3E509F07F08022319C082C083E990D8
:0841B3006000F0D083D08222ED
:1041BC00FFFFFFFFFFFFFFFFC082C0839088DC1270
:1041CC0024271268E71221A2D083D0820201357411
:1041DC00EC12220189097C017D00890AAA0A7B0064
:1041EC001215A48A0A8B0BAE0AAF0B750800800B54
:1041FC00850A82850B837478F00508E508C3950958
:10420C00507912157A8A10EBF5113395E0F512F509
:10421C00139088E0780C1220397810790C121F2832
:10422C00AA0CAB0D12158C85080AEE250AF50AEFBF
:10423C003400F50B1242B87A037B001220F9EA60C5
:10424C000814601614601E80A71242B01220F9EAFE
:10425C002441850A82850B83809E1242B01220F97C
:10426C00EA246180ED1242B87A0A7B001220F9EA46
:10427C002430850A82850B83024204750A10750B63
:10428C0000780A122414EEFCEFFD7A107B121265F2
:10429C00021221A2EE4F6007EEFAEFFB1215AA7F75
:1042AC000C0222D31242B87A1A7B002212157AEA37
:1042BC00F8EBF922D2AF43F4C043F10243F520539B
:1042CC00FF7F43FF40D2FF43FC0B43FAD8C2EAD234
:1042DC00FE43A88853F1FE75F30C53FF3F438680D1
:1042EC0043C50B43C2D8C2E943864043A8840201AC
:1042FC003574F71222017C007D00780080188A82C8
:10430C008B83E0F5F9A3AA82AB83A2EA40051243A2
:10431C005D40F7C2EA08E8C39940E380031221A28A
:10432C007F010222D374F71222017C007D007800F9
:10433C0080188A828B83E0F5C1A3AA82AB83A2E9A1
:10434C00400512435D40F7C2E908E8C39940E38099
:10435C00CF1245A99410ED94272274F31222017404
:10436C00F612218C8C0C74011221F5AC82AD837584
:10437C0083877582E5740912207C041221F574F58B
:10438C00F074021221F5E9F074031221F5EAF074CD
:10439C00041221F5EBF074051221F5E50CF07E0109
:1043AC008E0874011221F5E5822508F582E5831249
:1043BC0057D5F874061221F5E068F00EEEC394059B
:1043CC0040DE74071221F574F6F07E008E0874013D
:1043DC001221F5E58225081268531259AA7901AA0F
:1043EC0082AB8312098C0EEEC3940740DF740A1261
:1043FC0021A27F050222D37A057800797D00E8247A
:10440C00FF18E91264D270F51AEA70ED02013574E6
:10441C00F312220175820F7583FC1221D7890A8B46
:10442C000CECF8EDF9851882E4F0EA8B08F50974C8
:10443C00011221F5AC82AD8375838075820074F016
:10444C007B0412209D041221F574F512488A740322
:10445C001221F5E50A12488A74051221F5EA124870
:10446C008A74071221F5E50C12488AE50845097093
:10447C006288828983E0F874091221F5E812488A6F
:10448C007E01FFEEF8EFF9E8C333F8E933F9740174
:10449C001221F51245C0740B1221F51245C9C3EE59
:1044AC009404EF940040DC740D1221F5124888FE40
:1044BC00FFEEF8EFF9E8C333F8E933F97401122190
:1044CC00F51245D9FFC3EE9407EF94004003024563
:1044DC009D80DE7C007D0088828983E0FEECFAED15
:1044EC00FBEAC333FAEB33FB74011221F5E5822AA4
:1044FC00F582E5833BF583A3A3A3A3A3A3A3A3EE18
:10450C0012488A88828983A3A882A9831245A99517
:10451C0008ED950940C17E017F00E508C333F8E53D
:10452C000933F9EE1221F5E58228F8E58339F9E82B
:10453C00FAE9FB8022EEF8EFF9E8C333F8E933F936
:10454C0074011221F51245C08A828B83A3A3A3A305
:10455C00A3A3A3A31245C9E50824041245B440D56E
:10456C008A828B83A3A3A3A3A3A3A3A3A3A312486D
:10457C0088FE8013EEF8EFF9E8C333F8E933F974E9
:10458C00011221F51245D9FFE50824061245B44065
:10459C00E37582F17583031221D70243FEEC2401EB
:1045AC000CED3400FDC3EC22F8E5093400F9C3EE40
:1045BC0098EF99221245F0E0F8A3E0F922E068F0B8
:1045CC00A3E069F0EE24010EEF3400FF221245F057
:1045DC001259AE7901AA82AB8312098CEE24010E1A
:1045EC00EF340022E58228F582E58339F5832274C5
:1045FC00F712220174EA12218CE99008CBF07C06A8
:10460C007D007A1F7B00120B00851882851983E4CC
:10461C00F074101221F5E4F0A3F0041221F5E4F08B
:10462C00740E1221F5745012488A740C1221F57410
:10463C005012488A740A1221F5E4F0A3F07408129F
:10464C0021F574E8F0A3740312599E79017A05FBE5
:10465C0012093E74101221F5AC82AD8379027A06F0
:10466C007B0312093E7CB37D11791B7A087B031204
:10467C00093E7CE57D1179137A077B0312093E74A0
:10468C00011221F5AC82AD8379017A107B031209FA
:10469C003E740E1221F5AC82AD8379027A117B0344
:1046AC0012093E740C1221F5AC82AD8379027A1298
:1046BC007B0312093E740A1221F5AC82AD83790298
:1046CC007A137B0312093E74081221F5AC82AD8378
:1046DC0079027A147B0312093E7CF87D117A1579E4
:1046EC0000120C7A7C407D067A0612487E7A0712FC
:1046FC00487E7A0812487E7A097B00120B0090885B
:10470C00D812205774121221F51220637402122150
:10471C00F57401F07C0679FF7A427B071205DEE91D
:10472C00700874021221F57401F074011221F574F1
:10473C0001F0851882851983E4F074071221F57451
:10474C0001F074121221F5AC82AD8379047A087BE6
:10475C000412070474021221F5AC82AD8379017A3C
:10476C00007B0412070474011221F5AC82AD83792D
:10477C00017A027B04120704851882851983AC82A6
:10478C00AD8379017A037B0412070474071221F5B7
:10479C00AC82AD8379017A067B0412070490888C75
:1047AC00122057120C8090888C122057120D8812F0
:1047BC00069E90888C1220571209E074061221F57F
:1047CC007401F074051221F57402F074041221F5D1
:1047DC007403F01221F57404F074061221F5AC8206
:1047EC00AD837A0179001209EC74051221F5AC82C3
:1047FC00AD837A0179011209EC74041221F5AC82B3
:10480C00AD837A0179021209EC74031221F5AC82A2
:10481C00AD837A0179031209EC1266047CCB7D0915
:10482C007A0679041209EC1206BC1206B69008CB73
:10483C00E0F912066E7A00790312086C7A2E7B125C
:10484C001209E67900120E7E43FE1E43FF01C2914F
:10485C00D294438F08C293C292D2A012069253FEF6
:10486C00FD7A017B009008CBE0F91205BA741602B0
:10487C0043297B00120B007C407D062274F6F0A3CA
:10488C00E4F02274F6122201749012218CEAFEEBF1
:10489C00FF5480603D9008CBE0F91205A28A088B8A
:1048AC0009A808A909E849602088828983E064C0C6
:1048BC007010A3A3A3E0FA88828983A3A3E0F91262
:1048CC0009B6AA08AB09120590EEFAEF6480FB0258
:1048DC004EEEEEA2E050707A267B1212094A7A2A2A
:1048EC007B1212072279001206087A81795A120873
:1048FC001E1205489083F0C08274121221F5AC820E
:10490C00AD83758383D082745E12207C7412122165
:10491C00F5AA82AB83120554746F1221F5E064047E
:10492C00600F7A81795612081E12054290120FE41C
:10493C00F01209869088541224271268E71221A2DB
:10494C00EE6401FAEF80875402605E9008CCE0645C
:10495C0005601B74011221F5AC82AD837A057B03D3
:10496C0012094474011221F5E0700312685C900B7B
:10497C00A9E004F0C3940F4028900913E004F0C39D
:10498C0094284018900977E06007900913E4F080B0
:10499C000690097AE0600590097AE4F0900BA9E49E
:1049AC00F0EE6402FAEF0248DAEF540160137CD1A6
:1049BC007D097AE079FA12092CEEFAEF64010248CB
:1049CC00DAEF5402603D7CB17D0A12648B12241420
:1049DC007C007D007AB17B0A12576B1221A27808F9
:1049EC001224147C007D007AD17B0912576B1221A2
:1049FC00A27CD17D097AE079FA120932EEFAEF64E1
:104A0C000280A3EF5440603590097BE0640D701078
:104A1C001206E07C007B007A007944120998800829
:104A2C00E0640F70031206E0900BA8E4F0900BA763
:104A3C00F090097BF0EEFAEF64400248DAEE54088D
:104A4C006009120A0AEE640802494FEF5410700311
:104A5C00024AF19008DBE064017005E4F0538DDE4E
:104A6C009085C1C08274021221F5AC82AD8375832E
:104A7C0085D082741012207C74021221F5AA82ABAC
:104A8C008379051209F274071221F5E06430701F66
:104A9C0074021221F5E0643370159009CAE07004B9
:104AAC007C0180027C007B007A00790C12099875DD
:104ABC00081075090078081224147C007D00740419
:104ACC001221F5AA82AB8312576B1221A274021227
:104ADC0021F5AC82AD837A1079051209ECEEFAEF70
:104AEC0064100248DAEE54407003024CBF7C017B28
:104AFC00007A00790712099812099E7A02126583CE
:104B0C007A801265837A007B041265857A007B10AB
:104B1C001265857A40126583900BA7E0C39405500B
:104B2C0002E4F0A3E0C394055002E4F09009CAE457
:104B3C00F09009C8F0900913F0900977F09009C92A
:104B4C00F09008DDF09008D6F09008E2F090091291
:104B5C00F09008DBF09008D7F090091EF0C291534A
:104B6C00FEFD90091FF0C29453A8F375C10043C415
:104B7C008043FB8053F3F353FDF3438F089008CF2E
:104B8C00F0C293D29243FF01900973F09008E1F0C8
:104B9C00D2A09008D8124F101224147C007D007AF9
:104BAC002B7B0912576B1221A275080A7808122464
:104BBC00147C007D007A217B0912576B1221A2759F
:104BCC00082878081224147C007D007A4B7B09128B
:104BDC00576B1221A275081F780812241412576300
:104BEC001221A290120FE06401700D9008E0E064B5
:104BFC00017018120548800EE070109008E0E06417
:104C0C000170081205429008E0E4F075F30075FDA0
:104C1C000C758000758F0875F40075FEDE759005B7
:104C2C0075F60075F5F875FF0175A00175F7009024
:104C3C0008DFE4F09008CCE06405702E1209508572
:104C4C001882851983AC82AD837A057B03120944E3
:104C5C00851882851983E06401700874011221F5AE
:104C6C00124F1974011221F5802974011221F5AC2F
:104C7C0082AD837A057B0312094474011221F5E09D
:104C8C0064017009851882851983124F1985188261
:104C9C00851983124F19538ADE538BFE438D0143C2
:104CAC008D2043AC0153FEDF7901120608EE6440FF
:104CBC000249B0EE541060319009C3E014600B143B
:104CCC00601114601214601680197A0F124EFA7467
:104CDC0002800F7403800B124EF874048004124E81
:104CEC00F8E4F0EE641002494FEE54807003024D6C
:104CFC008B9008D6E014600B14601314601B1460C6
:104D0C0068807679017A007B001206CE806B79017F
:104D1C007A007B001206D48060900923E090092C65
:104D2C00F0900924E090092DF090094A7401F07C70
:104D3C00007BF2FA79321209987C2B7D097BF27A8E
:104D4C000179321209A4900973E4F090092A124FE8
:104D5C00101224147C007D007A2B7B0912576B12E5
:104D6C0021A290094BE4F0801079017A007B0012AB
:104D7C0006C87A107B00120698EE648002494FEE4A
:104D8C005420605D900978E07010900979E0700A09
:104D9C00124F0379201209988041900BA7E0C3941D
:104DAC0005401C9008DDE075F00A84E5F0640260B3
:104DBC000E7A167B00120698124F03790D80D67569
:104DCC00080A75090078081224147C007D007A21E9
:104DDC007B0912576B1221A21206ECEE64200249D9
:104DEC004FEF54086017438D209008E1E4F07901EF
:104DFC00FAFB1206C8EEFAEF64080248DAEF540424
:104E0C007003024EC89008DDE07040900977E064B2
:104E1C00027028E4F07C01FBFA79361209987A13B7
:104E2C007B0012069890097C1245C3E84960031276
:104E3C004F297A0D7B881209DA8079E070767C0133
:104E4C007B007A00790712099880697A117B00122D
:104E5C00069890097C1245C3E8496003124F2975E6
:104E6C00080275090078081224147C007D007AD998
:104E7C007B0812576B1221A275F0649008DDE08458
:104E8C00F8740168700A7C017B007A007972800DDD
:104E9C00740268700B7C017B007A0079741209989B
:104EAC009008CFE4F012574C12580A50077A0F7B37
:104EBC0000120698EEFAEF64040248DAEF54206010
:104ECC001D900BA8E4F0900BA7F09088E412242717
:104EDC001268E71221A2EEFAEF64200248DA7A0097
:104EEC007B0074701221A27F020222D37A107B0005
:104EFC001206989009C322538DDE12099E7C007B0A
:104F0C00007A0022F0750820F509780822E4F0AC4C
:104F1C0082AD8379017A057B0312093E2290097CCC
:104F2C00E0FAA3E0FB1206DA2274F412220174FBFD
:104F3C0012218C8A08EAA2E540030250647900121F
:104F4C00060890091FE0600302502890091EE060DB
:104F5C000302502843FE0843FE02D293120986D264
:104F6C009143FE10D29443A80C9008DF7401F043D7
:104F7C00FF01C2A0750AE0750B00780A1224147C9C
:104F8C00007D007AD17B0912576B1221A27CD17D56
:104F9C00097AE079FA1209329009C6E060059009A5
:104FAC00C7E4F09009D1E064017006126537E48023
:104FBC0014A3E064019009787007E412653C048046
:104FCC0004E412653CF09088EC1224277A027B00F2
:104FDC009008CBE0F912063E74041221A212097A51
:104FEC009008CCE06405603474011221F5AC82ADFC
:104FFC00837A057B0312094474011221F5E07009D0
:10500C008518828519837401F0851882851983AC03
:10501C0082AD8379017A057B0312093E9008DDE0AD
:10502C007063900977E064016028E06402700D9071
:10503C0009231257EA601B1206E6801643FE2090E5
:10504C0008E1E4F09088541224277A201268E912BF
:10505C0021A290091FE004F0E508A2E740030257E3
:10506C00357900120608538DDE90091EE004F064B9
:10507C0001706990120FE07A817059795612081EEE
:10508C0012054280579008D91257EA70AA9008DD91
:10509C00E075F06484E5F0601414601124F7602965
:1050AC0014602624F5609824F6609480A59008E19D
:1050BC00E4F09008CFE0709A79017A007B00120638
:1050CC00C89008CF7401F0808912573F7B001206FC
:1050DC009802505E795A12081E120548A291500788
:1050EC00A29450030251879088EC1224277A027BF9
:1050FC00009008CBE0F912063E74041221A243FE84
:10510C0012D29143FE08D292D293438D2043FE10CB
:10511C00D29412098643A88C9008DF7401F043FFE7
:10512C0001C2A012574C9009C6E060059009C7E473
:10513C00F012097A750AE0750B00780A1224147CB7
:10514C00007D007AD17B0912576B1221A27CD17D94
:10515C00097AE079FA1209329009D1E064017006FB
:10516C00126537E48014A3E064019009787007E4B9
:10517C0012653C048004E412653CF090091EE0C307
:10518C009402500302573290120FE0600302523F18
:10519C0074021221F5AA82AB8312054E74031221FC
:1051AC00F5E0F874021221F5E070030253C6E860D2
:1051BC00030253C61257F474021221F5E024FC606A
:1051CC001D24FC603624F8603B24F0604024E07021
:1051DC000302535D24C07003025365025385888219
:1051EC0089837403125823600302539F900912E0C1
:1051FC00600302539F12578F02539F8882898374D6
:10520C000602539E88828983740902539E88828980
:10521C00837423F0900978E07056900979E070500F
:10522C007C007B007A007920120998900912E00426
:10523C00F0D2919008F9E0F89008DDE06003025498
:10524C00F0900912E0640760030256EF7423686063
:10525C00030256EF9008E07401F090091EF0900BD9
:10526C00A8E0C3940550030254311257A80254D736
:10527C00900912E06406700302539F9008DDE075FC
:10528C00F00A84A8F0740368701C900912E064049E
:10529C00600A9008F47401F0A3F0A3F012578F90F9
:1052AC000912E402539EE87040E0605F12575312FB
:1052BC0024141257631221A21257DB600514600CE0
:1052CC0080157C017B007A00797280087C017B0060
:1052DC007A00797412099812580A400302539F7A83
:1052EC000F7B0012069802539F740268701D1257B0
:1052FC00531224141257631221A2900912E4F07C69
:10530C0001FBFA797112099802539F900BA8E004E3
:10531C00F0940540051257A8801B900979E06401B0
:10532C00700C9008F8740FF01257811209A47A11BE
:10533C007B00120698750A1F750B00780A1224144C
:10534C001257631221A2900912E4F090091E0480F6
:10535C00418882898374058039888289837402121A
:10536C005823702F900912E070297A077B001206DF
:10537C009812099E7A070252ED74021221F5E0C0D0
:10538C00E0900912E0F874F328F58274081268575B
:10539C00D0E0F0900978E064016003025237900984
:1053AC001EE064027003025237900912E06003029F
:1053BC00523790091E740102523CE8700302523FAE
:1053CC00E0600302523F1257F474031221F5E0140B
:1053DC00601514601A24FE601D24FC602124F86002
:1053EC002524F0602F809288828983740880A3889A
:1053FC008289830252AE88828983742A809488823F
:10540C0089837407808C8882898374041258237072
:10541C00820251F888828983740112582360030236
:10542C00539F025370750900800205099009D3E05F
:10543C00F8E509C3985051E50975F016A4F8A9F0E0
:10544C0074D128FE740939FF750A06750B00780AA9
:10545C001224147CF37D08EE240FFAEF3400FB12B7
:10546C00156874021221A28B0BEA450B70BC7C02EE
:10547C007B0B7A00792A120998EE2404FCEF340095
:10548C00FD7B0B12647C8043900979E06401700809
:10549C001257811209A48033900BA8E004F0C39436
:1054AC000540151257B79088F01224277A007B20FC
:1054BC001268EB1221A28013900979E07006900912
:1054CC0078E060077A117B00120698750A1F750B3D
:1054DC0000780A1224141257631221A2900912E4C4
:1054EC00F00256EF75F00A84A9F0E96003025652F7
:1054FC00900912E0640760030256EF74236860039E
:10550C0002561A900900E0642360287800880A7417
:10551C00F3250AF58274081257D5A3A3A3A3A3A35A
:10552C00A3F008E8C3940740E47A107B00120698B5
:10553C000256EF7A007B0074F32AF874083BF98862
:10554C00828983A3A3A3A3A3A3A3E0FC888289835A
:10555C00E06C60527A117B0012069812574C90083E
:10556C00D8E004F0750A1F750B00780A1224141287
:10557C0057631221A2900912E4F09008D8E0C3946A
:10558C000350077A0F7B0012069875F0649008DDC3
:10559C00E08414600614606B0256EF7C017B007A89
:1055AC000079720256ECEA24010AEB3400FBC3EAE0
:1055BC009407EB9400408075F0649008DDE084144F
:1055CC00600614602E0256EF7C007B067A0079721E
:1055DC0012577179721209A49009D2E06401700318
:1055EC000254D77401F09088D81224277A007B01DA
:1055FC000254BC7C007B067A007974125771797462
:10560C0002549F7C017B007A0079740256EC12578D
:10561C00531224141257631221A21257DB60051483
:10562C00600C80157C017B007A00797280087C010B
:10563C007B007A00797412099812580A40030256BA
:10564C00EF7A0F025537740269705C900912E064AE
:10565C0007703774236870399008E07401F07C008F
:10566C007B067A00797112577179711209A4750A47
:10567C001F750B00780A1224141257631221A29082
:10568C000912E4F09008DD0254EC125814642370F3
:10569C00521257531224141257631221A27C017B0D
:1056AC00007A0079718039740169700612573F02D3
:1056BC005537740369702C900912E06401702490C2
:1056CC0008F3E09405401C7A117B001206989009AF
:1056DC0012E4F012580A400B7C007B007A00790D22
:1056EC00120998900912125814F8900978E0640184
:1056FC0070217423686009900912E0C39407402656
:10570C00750A1F750B00780A1224141257631221A4
:10571C00A2800E7423686009900912E0C3941F40A4
:10572C0005900912E4F0438D2174051221A27F0427
:10573C000222D37A117B0012069812099E7A11224A
:10574C0012099E12099E227A117B00120698750A84
:10575C001F750B00780A227C007D007AF37B0812FF
:10576C001574740222125775221209987CF37D0865
:10577C007B067A00227C007B067A0079261257750C
:10578C007926227C007B047A0079731209987CF3C9
:10579C007D087B047A0079731209A4221257B77C16
:1057AC00007B007A00790D120998227C027B007A2A
:1057BC0000792B1209987A0C7B00120698228A82A7
:1057CC00A88274B228F58274093400F583E0229023
:1057DC000912E4F075F0649008DDE0841422E0F91D
:1057EC00A3E0FAE9FBEA4B227A077B0012069890B9
:1057FC000912E0F874F328F874083400F9229008C0
:10580C00D8E004F0C3940322E0F874F228F5827413
:10581C00083400F583E022F09008DDE075F00A848E
:10582C00E5F064032274F612220174D212218CE981
:10583C00FE1460101470030258D524FD7003025836
:10584C00DC02599474081221F5AC82AD837A047B86
:10585C000312094474081221F51259AA7409122171
:10586C00F5E0C0E074011221F5D0E0F0740A1221C9
:10587C00F5E0C0E074021221F5D0E0F074041221BE
:10588C00F5E4F074031221F5E4F0740D1221F5E047
:10589C00C0E074071221F5D0E0F0740C1221F5E091
:1058AC00C0E074061221F5D0E0F0740B1221F5E083
:1058BC00C0E074051221F5D0E012599E7A087900E7
:1058CC001206A41209D40259949008CDE4025993FB
:1058DC007910120980740E1221F5AC82AD83758398
:1058EC0086758291741012207C901212E0C0E074C4
:1058FC00161221F5D0E0F0901213E0C0E0741712EC
:10590C0021F5D0E0F0901215E0C0E074181221F5EA
:10591C00D0E0F0901217E0C0E074191221F5D0E03D
:10592C00F090121AE0C0E0741A1221F5D0E0F09059
:10593C00121DE0C0E0741B1221F5D0E0F0758386D7
:10594C007582A1741012207C740E1221F5858208C8
:10595C0085830978081224147C107D12742012217E
:10596C00F5AA82AB8312103A74021221A29008DEBF
:10597C00E4F0740E1221F5AC82AD837A1079041226
:10598C0009EC9008CD7401F0EE9008CCF0742E0266
:10599C004EF0F0851882851983AC82AD83221259A2
:1059AC00AE22E0851882851983F02274EF12220151
:1059BC007582E57583FE1221D7E9601724FE6022FB
:1059CC0024FE6029147003025F0C147003025FBB89
:1059DC0002646E851882AA82AB8379001209F202E6
:1059EC00646E851882AA82AB83790280EF740112EF
:1059FC0021F5AC82AD837583867582B1741012204B
:105A0C007C041221F5AA82AB8379041209F2740189
:105A1C001221F585820885830978081224147403F1
:105A2C001221F5AC82AD837A107B1212108E7402A7
:105A3C001221A274011221F5E064456003025B445B
:105A4C0074051221F5E024D090120EF090120D7412
:105A5C000BF07A008A82A88274011221F51264E19B
:105A6C00C0E012649F126857D0E012655540E57E85
:105A7C000080010E9009D3E0F8EEC398501D750814
:105A8C000B75090078081224141264A71221A28B3A
:105A9C0009EA450970DDEE90120DF090120DE064EC
:105AAC000B703E12655C5039E890120DF09009D3E2
:105ABC0004F07D0012649B1257D5C0E012659DD096
:105ACC00E0F00DEDC3940B40EB7C001265738C0879
:105ADC0074CA250812651C74FFF00CECC3940640C4
:105AEC00EA900977E070119009C8E0600302646ED7
:105AFC009009777401F080076401600302646E9072
:105B0C0009C37401F07A007B041265859088F41245
:105B1C0024277A101268E91221A29088E81224270F
