:1000000002066DC2AFF508610DFFFFC2AFF50861D2
:100010001FFFFFC2AFF5086131FFFFC2AFF50861F6
:1000200043FFFFC2AFF5086155FFFFC2AFF508619E
:1000300067FFFFC2AFF5086179FFFFC2AFF5086146
:100040008BFFFFC2AFF508619DFFFFC2AFF50861EE
:10005000AFFFFFC2AFF50861C1FFFFC2AFF5086196
:10006000D3FFFFC2AFF50861E5FFFFC2AFF508613E
:10007000F7FFFFC2AFF5088109FFFFC2AFF50881A6
:100080001BFFFFC2AFF508812DFFFFC2AFF508814E
:100090003FFFFFFF758701002274F312053A890ABA
:1000A000750C00750D08780C12063E7C807D017A77
:1000B000007B0012045574021205FB850A0D9001A5
:1000C00086E0F50EA3E0F50F7409780E12064FE5F1
:1000D0000EF50B9001867409780E12062BE0C3F51D
:1000E0000EA3E0950FF50F7402780E12062BAE0EDC
:1000F000AF0FE50D250BF50B7401650D7006743E11
:10010000250BF50B53B4F375BC0075BC008042742D
:100110008028F582740139F583E0F5BDE8240108F3
:10012000E93400F9C39408402C050A7408650A7084
:1001300003750A46750E00750F08780E12063E7C90
:10014000807D017A007B00A90A1204557402120511
:10015000FB78007900E50D650A700AE849700678B9
:1001600003790080B7E50B650A70A4EE687002EFB2
:1001700069709CE5BD85BC0C850C0EAA0EFB7F0644
:100180000205A074F612053A890CEAFEEBFF53BE95
:10019000FBE59DA2E650FAE5C654804449F5C6E564
:1001A0009E547F644970F853C67FE59EA2E740FAEB
:1001B00053C680E59E547F70FA43BE04906270740B
:1001C00008F07409F5D575D4801200998E828F835A
:1001D000E0F8A3E0F9EA687002EB6970428E828F62
:1001E00083A3A3E8F0A3E9F08E828F8374FFF0A3CA
:1001F000F0750A01750B00780A12063EEEFCEFFD61
:10020000850C0A7409780A12062BFAAB0B1204D675
:1002100074021205FBC2AF75C9AB75C95B80FE7F66
:10022000030205A074FC120615750A04750B00780C
:100230000A12063E7402120689AC82AD837A007BF4
:1002400000790812045574021205FB851A82E0F445
:100250007003A3E0F4602D851A82851B83E0F8A368
:10026000E0F9E849601E7402120689E0687003A391
:10027000E0697010750901024030C2AF75C9AB75F5
:10028000C95B80FE780A12063E7402120689AC82AF
:10029000AD837A007B00790112045574021205FBCC
:1002A000851A82E0F47003A3E0F46051851A828518
:1002B0001B83E0F8A3E0F9E8496042740212068962
:1002C000E0F8A3E0F9851A82851B83E0687003A338
:1002D000E0697010750900020830C2AF75C9AB75CE
:1002E000C95B80FE74FF68700374FF69700F851A24
:1002F00082851B83AA82AB83790112018343BE03EB
:10030000120094C2AF75C9AB75C95B80FEE5096088
:1003100007E508D2AF024033E508D2AF020833E563
:10032000096007E508D2AF02403BE508D2AF0208FA
:100330003BE5096007E508D2AF024043E508D2AFCC
:10034000020843E5096007E508D2AF02404BE50823
:10035000D2AF02084BE5096007E508D2AF0240536F
:10036000E508D2AF020853E5096007E508D2AF02FD
:10037000405BE508D2AF02085BE5096007E508D2FB
:10038000AF024063E508D2AF020863E5096007E504
:1003900008D2AF02406BE508D2AF02086BE50960F6
:1003A00007E508D2AF024073E508D2AF020873E553
:1003B000096007E508D2AF02407BE508D2AF02082A
:1003C0007BE5096007E508D2AF024083E508D2AFBC
:1003D000020883E5096007E508D2AF02408BE50813
:1003E000D2AF02088BE5096007E508D2AF0240935F
:1003F000E508D2AF020893E5096007E508D2AF022D
:10040000409BE508D2AF02089BE5096007E508D2EA
:10041000AF0240A3E508D2AF0208A3E5096007E5F3
:1004200008D2AF0240ABE508D2AF0208ABE50960E5
:1004300007E508D2AF0240B3E508D2AF0208B3E542
:10044000096007E508D2AF0240BBE508D2AF020859
:10045000BB0002045174F512053A890A740B1206A6
:1004600089E0FEA3E0FF740F550AF50C750D0074CA
:100470000B780C12062BEA2400F8EB3480F9E82400
:1004800000E9350DF9E5C7FBA2AFE433F50BC2AFC8
:10049000E50AC4540FFAE5C754F84AF5C7EE4F60B1
:1004A0002888828983E08C828D83F088828983A367
:1004B000A882A9838C828D83A3AC82AD83EE24FFB6
:1004C0001EEF34FFFFEE4F70D88BC7E50BA2E09212
:1004D000AF7F040205A074F712053A740912068969
:1004E000E0F50AA3E0F50BED900980F0ECA3F0A392
:1004F0007462F0A37473F0A3E0541FF0E50A333381
:1005000054FCA3F07406780A12064FE50A90098499
:10051000F09009867412F0A37442F053D1FE75D6A0
:1005200001EA906271F0EBA3F0906270E0D2E1F02A
:10053000E0A2E740FB7F020205A0251AC582C0E0C9
:10054000E51B34FFC583C0E0E51AC3958224F9108A
:10055000AF0885831B85821A800885831B85821AD4
:10056000D2AFCEF0A3E520F0A3780AE608F0A3DE30
:10057000FAEFF0A3E58124FBF8E608F0A3E608F023
:10058000A30808E608F0A3E608F0A315811581D0BA
:10059000E0FED0E0F815811581E8C0E0EEC0E02271
:1005A000851B83851A82E0A3FEE0A3F520780AE08C
:1005B000A3F608DFFAE0A3FFE0A3C0E0E0A3C0E0F9
:1005C000E0A3C0E0E0A3C0E010AF0885821A8583F5
:1005D0001B800885821A85831BD2AFD083D08222EC
:1005E000251AF58210AF08F51A4002151B8008F590
:1005F0001A4002151BD2AF851B8322C0D0251A10CA
:10060000AF08F51A5002051B8008F51A5002051BA9
:10061000D2AFD0D022251A10AF08F51A4002151B10
:100620008008F51A4002151BD2AF22700422600D1B
:1006300018C6C333C608C633C6D5E0F41822740200
:100640008000C0E0F4041205E0D0E012067C2260D5
:100650000C08C6C313C618C613C6D5E0F42212068A
:1006600098B9000302066712022412069375D0009F
:1006700075813F751A80751B0102065ECAC0E0E6EF
:10068000F0A308DAFAD0E0FA22251AF582E4351B45
:10069000F5832200000080FB790122FFFFFFFFFFAE
:1006A000FFFFFFFFFFFFFFFFFFFFFFFFFFFFFFFF5A
:1006B000FFFFFFFFFFFFFFFFFFFFFFFFFFFFFFFF4A
:1006C000FFFFFFFFFFFFFFFFFFFFFFFFFFFFFFFF3A
:1006D000FFFFFFFFFFFFFFFFFFFFFFFFFFFFFFFF2A
:1006E000FFFFFFFFFFFFFFFFFFFFFFFFFFFFFFFF1A
:1006F000FFFFFFFFFFFFFFFFFFFFFFFFFFFFFFFF0A
:10070000FFFFFFFFFFFFFFFFFFFFFFFFFFFFFFFFF9
:10071000FFFFFFFFFFFFFFFFFFFFFFFFFFFFFFFFE9
:10072000FFFFFFFFFFFFFFFFFFFFFFFFFFFFFFFFD9
:10073000FFFFFFFFFFFFFFFFFFFFFFFFFFFFFFFFC9
:10074000FFFFFFFFFFFFFFFFFFFFFFFFFFFFFFFFB9
:10075000FFFFFFFFFFFFFFFFFFFFFFFFFFFFFFFFA9
:10076000FFFFFFFFFFFFFFFFFFFFFFFFFFFFFFFF99
:10077000FFFFFFFFFFFFFFFFFFFFFFFFFFFFFFFF89
:10078000FFFFFFFFFFFFFFFFFFFFFFFFFFFFFFFF79
:10079000FFFFFFFFFFFFFFFFFFFFFFFFFFFFFFFF69
:1007A000FFFFFFFFFFFFFFFFFFFFFFFFFFFFFFFF59
:1007B000FFFFFFFFFFFFFFFFFFFFFFFFFFFFFFFF49
:1007C000FFFFFFFFFFFFFFFFFFFFFFFFFFFFFFFF39
:1007D000FFFFFFFFFFFFFFFFFFFFFFFFFFFFFFFF29
:1007E000FFFFFFFFFFFFFFFFFFFFFFFFFFFFFFFF19
:1007F000FFFFFFFFFFFFFFFFFFFFFFFFFFFFFFFF09
:100800006DEB6DEB0000007C41414141FFFFFFFFBC
:10081000FFFFFFFFFFFFFFFFFFFFFFFFFFFFFFFFE8
:10082000000102030405060708090A0BFFFFFFFF8A
:10083000020CE80217F7FFFFFFFFFFFFFFFFFFFFBC
:10084000FFFFFF02238EFFFFFFFFFF021F8DFFFF51
:10085000FFFFFFFFFFFFFFFFFFFFFF021F71FFFF13
:10086000FFFFFF021F53FFFFFFFFFFFFFFFFFFFF21
:10087000FFFFFFFFFFFFFFFFFFFFFFFFFFFFFFFF88
:10088000FFFFFF02186AFFFFFFFFFFFFFFFFFFFFF1
:10089000FFFFFFFFFFFFFFFFFFFFFF021EF3FFFF52
:1008A000FFFFFFFFFFFFFFFFFFFFFF021F2CFFFF08
:1008B000FFFFFF0216AB01FF0000B4000028002874
:1008C00000283075A000A000A000A00000080008CB
:1008D000E001F000100010001000100010001000E7
:1008E00050005000500010001000D0070000000021
:1008F00000000F0001000500307507001000010026
:1009000081FF0000FF5A2978296029FF02020208AE
:10091000025000A0000000E803028285010000658B
:1009200085026C85010000BD170270850100003151
:100930000C026C85010000BE17027685010000479D
:100940000C026C85010000BF170278850100004988
:100950000C026C85010000C017027E850800004A69
:100960000C026C85010000C117029885010000C2CD
:1009700017FF0100FF200282850100005985026CEB
:1009800085010000261802AA850000000000026808
:1009900085030000970C482F482F482F482F482FD9
:1009A000482F482F482F482F482F482F482F482F8F
:1009B000D631EE31D031FFFF020202020202020202
:1009C00002010D00000010010282850100005F8518
:1009D000026C850100006918029485010000F7107F
:1009E000026C850100006A18029285010000F883FC
:1009F000026C850100006B18029085010000CF8316
:100A0000026C850100006C18028E85010000F782DF
:100A1000026C850100006D180286850100000983C3
:100A2000026C850100006E180284850100001B83A2
:100A3000026C850100006F180280850100002D8383
:100A4000026C850100007018027C85010000DD83C6
:100A5000026C850100007118027A8501000072188D
:100A600001E803053F10011C028285010000628538
:100A7000026C85010000181910A682020000F5130F
:100A8000026885030000F713026A850100000584EF
:100A9000026C85010000181910B682020000F613DE
:100AA000026885030000FD13026A850100001284BC
:100AB000FFFFFF0001307503020106000000000087
:100AC0000000000000000000000000000000000026
:100AD00000000000000000FFFF0600800CE803118A
:100AE00009E699BAE883BDE4BA91E994814849538B
:100AF00053051250005000020A000201060302F0E2
:100B0000FF53696D706C6520424C452050657269D9
:100B100070686572616C010102030405060708092B
:100B20000A0B0C0D0E0F1034370000403746373AD1
:100B3000370A4368617261637465726973746963CB
:100B40002031000243686172616374657269737475
:100B50006963203200084368617261637465726979
:100B60007374696320330010436861726163746554
:100B70007269737469632034000A43686172616347
:100B80007465726973746963203500164368617215
:100B900061637465726973746963203600028285CB
:100BA0000100005685026C85010000E21902A28551
:100BB0000300004017026A85010000E319026C85FA
:100BC000010000F41902A4850100004117026A85A2
:100BD000010000F519026C85010000061A02A685C5
:100BE0000200004217026A85010000071A026C85A4
:100BF000010000181A02A88500000043170268854A
:100C00000300004417026A85010000191A026C856E
:100C10000100002A1A029E850300004A17026A8515
:100C20000100002B1A026C850100003C1A029C8511
:100C300003000051170268850300006217026A85ED
:100C40000100003D1A010000006D4EC64139300020
:100C500000E5C754F84405F5C7790122000000807B
:100C6000FB120C51B90003020CD2E479217808B8C8
:100C700000028004F709D8FCE479297802B8000260
:100C80008004F709D8FCE4900C007869790C8002A4
:100C9000F0A3D8FCD9FA781C9008B67A01BA000201
:100CA0008007E493A3F608DAF9901768AA82AB8369
:100CB0009008B7789B79048015E493A3AC82AD8348
:100CC0008A828B83F0A3AA82AB838C828D83D8E93E
:100CD000D9E77582527583C47407120CFA75825C69
:100CE00075830C7400120CFA75D000758130751A7A
:100CF00000751B0C759F00020C61C09FF59FE4738B
:100D0000D09F22D083D082C09FE493C0E07401932F
:100D1000C0E0740293F59F22E066701008A3E066BD
:100D2000700A08A3E066700408A3E06622C3E79691
:100D30000809E7960809E7960809E79622C3E096AE
:100D400008A3E09608A3E09608A3E09622C00AC391
:100D5000E096F50A08A3E096420A08A3E096420A44
:100D600008A3E096450A7001D3D00A22080808EAD1
:100D7000C0E0EBC0E086F0E7A4FA180986F0E7A42B
:100D80002AFA180986F0E7A42AFA180986F0E7A4D7
:100D90002AFA1986F0E7A4FBE5F02AFA190886F08A
:100DA000E7A42BFBE5F03AFA190886F0E7A42BFB41
:100DB000E5F03AFA18180986F0E7A4C5F02BFBE431
:100DC0003AFA1908E7C5F0C6A426F6E5F03BFBE4BD
:100DD0003AFA1886F0E7A4F6E5F00826F6E43B08B0
:100DE000F6E43A08F6D0E0FBD0E0FA22E4CFC0E027
:100DF000E4CEC0E0E4CDC0E0E4CCC0E075F020C3B8
:100E0000E633F608E633F608E633F608E633F61876
:100E10001818EC33FCED33FDEE33FEEF33FFC3EC7B
:100E20009709ED9709EE9709EF97191919400FFFE8
:100E3000EC97FC09ED97FD09EE97FE191906D5F020
:100E4000BEECF709EDF709EEF709EFF7191919D01C
:100E5000E0FCD0E0FDD0E0FED0E0FF226016080804
:100E600008C6C313C618C613C618C613C618C613B9
:100E7000C6D5E0EA2270090808082260161818187A
:100E8000C6C333C608C633C608C633C608C633C68B
:100E9000D5E0EA22E627F60809E637F60809E6373C
:100EA000F60809E637F622E026F608A3E036F6084B
:100EB000A3E036F608A3E036F622E026F008A3E029
:100EC00036F008A3E036F008A3E036F022C3E69738
:100ED000F60809E697F60809E697F60809E697F690
:100EE00022C3E096F008A3E096F008A3E096F0088D
:100EF000A3E096F022E056F608A3E056F608A3E039
:100F000056F608A3E056F622E056F008A3E056F0A5
:100F100008A3E056F008A3E056F022E0F608A3E0AC
:100F2000F608A3E0F608A3E0F622E6F008A3E6F050
:100F300008A3E6F008A3E6F022E0FAA3E0FBA3E0B2
:100F4000FCA3E0FD22EAF0A3EBF0A3ECF0A3EDF0AC
:100F500022CAC0E0E6F0A308DAFAD0E0FA22CAC05A
:100F6000E0E0A3C582CCC582C583CDC583F0A3C50F
:100F700082CCC582C583CDC583DAE6D0E0CA22CA59
:100F8000C0E0E0A3C582CCC582C583CDC583F0A3F4
:100F9000C582CCC582C583CDC583DAE6DBE4D0E06B
:100FA000CA22C3E498F8E499F9120FE38026C3E457
:100FB0009AFAE49BFBE920E7E9120FE3E498F8E4EE
:100FC00099F922C3E498F8E499F9120FE3E498F848
:100FD000E499F9C3E49AFAE49BFB22EB20E7CFE91A
:100FE00020E7E0B90010BB0008E88AF084F8AAF016
:100FF00022E4FBC8FA22EB70227B10C833C8C93345
:10100000C9335007C39AC3DBF280069A50012ADB2A
:10101000EAC833F4C8C933F4C9FA2275F008E4C841
:1010200033C8C933C933C99AC99B5004C92AC93BBB
:10103000D5F0ECFBC833F4C8E4C9FA22600D08C649
:10104000A2E713C618C613C6D5E0F322600C08C683
:10105000C313C618C613C6D5E0F422700422600D6F
:1010600018C6C333C608C633C6D5E0F41822251AFD
:1010700010AF08F51A4002151B8008F51A4002153A
:101080001BD2AF22C0D0251A10AF08F51A500205A6
:101090001B8008F51A5002051BD2AFD0D022251AAA
:1010A000F58210AF08F51A4002151B8008F51A40AA
:1010B00002151BD2AF851B8322C582251AC582C5A6
:1010C00083351B10AF07F51B85821A8007F51B853A
:1010D000821AD2AFC58322251AF582E4351BF58327
:1010E00022E473251AC582C0E0E51B34FFC583C026
:1010F000E0E51AC3958224F810AF0885831B85822A
:101100001A800885831B85821AD2AFCEF0A3E52012
:10111000F0A3780AE608F0A3DEFAEFF0A3E5812455
:10112000FAF8E608F0A3E608F0A3E608F0A308083A
:10113000E608F0A3E608F0A315811581D0E0FED003
:10114000E0F8158115811581E8C0E0EEC0E02225A8
:101150001AC582C0E0E51B34FFC583C0E0E51AC3B1
:10116000958224F910AF0885831B85821A80088533
:10117000831B85821AD2AFCEF0A3E520F0A3780AB4
:10118000E608F0A3DEFAEFF0A3E58124FBF8E60819
:10119000F0A3E608F0A30808E608F0A3E608F0A329
:1011A00015811581D0E0FED0E0F815811581E8C0E9
:1011B000E0EEC0E022851B83851A82E0A3FEE0A357
:1011C000F520780AE0A3F608DFFAE0A3FFE0A3C069
:1011D000E0E0A3C0E0E0A3C0E0E0A3C0E0E0A3C083
:1011E000E010AF0885821A85831B800885821A85E6
:1011F000831BD2AFD083D082020D00851B83851A5A
:1012000082E0A3FEE0A3F520780AE0A3F608DFFA67
:10121000E0A3FFE0A3C0E0E0A3C0E0E0A3C0E0E003
:10122000A3C0E010AF0885821A85831B80088582E1
:101230001A85831BD2AFD083D08222C0D0251AC595
:1012400082C0E0E51B34FFC583C0E0E51AC3958288
:1012500024F310AF0885831B85821A800885831BC1
:1012600085821AD2AFC8F0A3E9F0A3EAF0A3EBF0AD
:10127000A3790AE709F0A3D8FAECF0A3EDF0A3EE06
:10128000F0A3EFF0A3D0E0F0A3D0E0F0A3D0E0F023
:10129000A3E520F0A3E5F0F0A322851B83851A8245
:1012A000E0C0E0A3E0F9A3E0FAA3E0FBA3780AE042
:1012B000F608A3DFFAE0FCA3E0FDA3E0FEA3E0FF55
:1012C000A3E0C0E0A3E0C0E0A3E0F5D0A3E0F520F8
:1012D000A3E0A3F5F010AF0885831B85821A800870
:1012E00085831B85821AD2AFD082D083D0E0F8D01C
:1012F000E03274048006740280027401C0E0F404D9
:1013000012109ED0E0120F512274048004740280E7
:1013100000CCC0E0EDC0E0E51AC39CCCAD1B500191
:101320001D10AF068C1A8D1B80068C1A8D1BD2AF38
:10133000120F5ED0E0FDD0E0FC22D083D082E9C065
:10134000E0E493A3C386F0C5F095F0F908E493A315
:1013500086F0C5F095F0700BE493A3C3994005E9BE
:10136000048002A3E475F002A42582F582E5F0353D
:1013700083F583D0E0F9E493A3C0E0E493C0E022D6
:10138000D083D082ECC0E0EDC0E0E493A3FCE49312
:10139000A3FDED4C600D1213CCEC24FFFCED34FFEB
:1013A000FD80EFE493A3FCE493A3FDED4C600D12EC
:1013B000140BEC24FFFCED34FFFD80EFD0E0FDD0FA
:1013C000E0FCE493A3C0E0E493C0E022C0E0C3E407
:1013D0009396087401939618400FE493667008087A
:1013E000740193661870007019A3A3C3E493960860
:1013F0007401939618A3A3400DD0E0D0E0D0E00292
:1014000013BCA3A3A3A3A3A3D0E022C0E0C0F08891
:10141000F0E4936670080874019366187000A8F0F1
:10142000A3A3700BD0F0D0E0D0E0D0E00213BCA3B7
:10143000A3D0F0D0E022FFFF74F512114FEAFEEBCB
:10144000FFEE2434F8EF3400F9880A890BEE2435D6
:10145000F582EF3400F583E0F8EE2437F582EF34BF
:1014600000F583E0F50CEC850CF0A4FCAAF0850CEB
:10147000F0EDA42AFDE82CF8E43DF97A257B001272
:101480000FE3EA850A82850B83F05407F87401B8EC
:1014900000028004C333D8FCC0E0E0131313541FD0
:1014A000F8EE28F8EF3400F9E8245DF582E934001D
:1014B000F583D0E0F8E0586008EE2434F582EF8040
:1014C0001EEE2436F582EF3400F583E0F5F0EA8471
:1014D000A8F0EE28F8EF3400F9E82438F582E93472
:1014E00000F583E0F97F040211FB74F512114FEA55
:1014F000FEEBFFEE2434F582EF3400F583E0C0E02C
:10150000EE2435F582EF3400F583D0E0F08E828F43
:1015100083A3A3A3A3A3A3A3C082C0838E828F832C
:10152000A3A3A3A3A3E0F8A3E0F9D083D082E0C3F0
:1015300098F50AA3E099F50BEE2480F582EF3400CC
:10154000F583E064017069EE2481F582EF3400F5E3
:1015500083E0F8A3E0F98E828F83A3A3A3A3A3A3C0
:10156000A3E0FCA3E0FD8E828F83A3A3A3A3A3E04B
:10157000FAA3E0FBC3EA9CEB9D5027C3EC98ED99DE
:10158000402EC3EA98EB9950277C7C7D0EEEFAEF53
:10159000FB122EA0EE2480F582EF3400F583E4F0F8
:1015A000800EC3EA98EB9940E0C3EC98ED9950D9CE
:1015B000EE2434F8EF3400F9E8FCE9FDEE2435F5CB
:1015C00082EF3400F583E0F8EE2437F582EF340043
:1015D000F583E0F50CE50A850CF0A4F50AAAF08580
:1015E0000CF0E50BA42AF50BE8250AF8E4350BF915
:1015F0007A257B00120FE3EA8C828D83F05407F882
:101600007401B800028004C333D8FCC0E0E01313B7
:1016100013541FF8EE28F8EF3400F9E8245DF58242
:10162000E93400F583D0E0F8E0586008EE2434F5A2
:1016300082EF801EEE2436F582EF3400F583E0F56C
:10164000F0EA84A8F0EE28F8EF3400F9E82438F541
:1016500082E93400F583E0F9121EE50214E5C08248
:10166000C083851A82851B83E0F8A3E0F9C3EA9C56
:10167000EB9D5012C3EC98ED994019C3EA98EB9991
:10168000501279018010C3EA98EB9940F5C3EC98A9
:10169000ED9950EE7900D083D08222EAC39CFAEB18
:1016A0009DFB22FF8521878522C622C0E0C0D0E8AD
:1016B000C0E0E9C0E0EAC0E0EBC0E0ECC0E0EDC0B3
:1016C000E0C00AC00BC00CC00DC082C083C0F07562
:1016D0009B00906182E0A2E64003021789E591A297
:1016E000E640030217897591BF900D41E0640570D3
:1016F00008122FDE122FEA8003122FE47521001248
:101700003044E9900D42F07900123038122E167AEA
:10171000017B00900D40E0F912332C907803E064D7
:101720004260030217D2900EDEE014F0600302174D
:10173000D2C2AF12173600782AD0E0F618D0E0F601
:10174000E59F5407F970059084EA80039084E67859
:101750000A120F1BE9C4C0E07829E6550AF50A0809
:10176000E6550BF50B740B780A12104CD0E0250AE5
:10177000F8906270E0A2E740F8E8C333906272F03C
:10178000906270E0D2E0F08049E0A2E55024E5915B
:10179000A2E5501E7591DF900D41E0640D7013902D
:1017A0000D63E004F064287002E4F07A00E0F912BE
:1017B00030B6906181E0A2E35009E5E9A2E350036D
:1017C00075E9F7A3E0A2E75009E591A2E750037598
:1017D000917FD0F0D083D082D00DD00CD00BD00A26
:1017E000D0E0FDD0E0FCD0E0FBD0E0FAD0E0F9D0D2
:1017F000E0F8D0D0D0E032C0E0C0D0C082C083904A
:101800006183E0A2E05009E5BFA2E0500375BFFE8E
:10181000E0A2E15009E5BFA2E1500375BFFDE0A2DF
:10182000E25009E5BFA2E2500375BFFBE0A2E3501E
:1018300009E5BFA2E3500375BFF7E0A2E45009E554
:10184000BFA2E4500375BFEFE0A2E55009E5BFA2D7
:10185000E5500375BFDFE0A2E65009E5BFA2E65000
:101860000375BFBFD083D0828088C0E0C0D0E8C0FD
:10187000E0E9C0E0EAC0E0EBC0E0ECC0E0EDC0E0D1
:10188000C0F0E5A7A2E6500FE5A1A2E6500953A7D4
:10189000BF75A1BF1218CFE5A7A2E5500CE5A1A224
:1018A000E5500653A7DF75A1DFE5A7A2E15009E5E2
:1018B000A1A2E1500375A1FDE5A7A2E2500CE5A1AC
:1018C000A2E2500653A7FB75A1FBD0F00217E0740B
:1018D000F812114F752101900D41E0640670151248
:1018E0002F728A828B83A3A3A3A3A3A3E0FAA3E00E
:1018F000FB122FCCA2AFE433FED2AF900D47E064D1
:101900000170187A207B00900D40E0F91233B67A0E
:10191000207B00900D40E0F9123332906182E0D2DA
:10192000E6F0900EDDE0602185C6228016900D461F
:10193000E064017008E5C654F84405F5C653BEFCE2
:101940001216A47401652160E4EEA2E092AF7F015B
:101950000211FBFF8E238F24858228858327851A19
:1019600082851B83E0CEA3E0CF852882852783EB89
:10197000C9EAC8EDCBECCA75F010C3E833C8E93347
:10198000C9EA33CAEB33CBC3EA9EF526EB9FF525B4
:10199000B35004AB25AA26EC33CCED33CDD5F0DA29
:1019A000AE23AF242274EB12114F74FA12106E8A18
:1019B0000A8B0B8C168D17900D41E024F7C394050C
:1019C00050069084BE021B07122F728A0C8B0DAE3C
:1019D0000CAF0DEE4F7003021B04AC0AAD0B851A61
:1019E00082851B83AA82AB83122FFC8E828F83A3F6
:1019F000A3780A120F1B908512780A120EF5851A29
:101A000082851B83780E120F1B908512780E120EA2
:101A1000F5780A790E120D2D501F780A790E120EE4
:101A2000CD9084D2780A120D4D4047850A12850B5D
:101A300013850C14850D158041850E12850F1385B5
:101A400010148511157812790A120ECD9084D2786F
:101A500012120D4D501C751200751300751400758F
:101A600015017812790E120ECD7812790A120E94A1
:101A700080089084BE7812120F1B74097812120E1F
:101A80007590853E780A120F1B7812790A120DECB8
:101A90008E828F83A3A3A3A3A3A3E0F8A3E0F97A84
:101AA000D07B03120FE3880A890BE4F50CF50D785F
:101AB00012790A120E9474041210D7E0F8A3E0F918
:101AC0007AD07B03120FE3E8FA8A0AE4F50B781266
:101AD000790A120D2D50077812790A120ECD900D49
:101AE00041E06408600AE064066005E06405701C7B
:101AF0009084F27812120D4D501290851A781212BD
:101B00000EA780089084A27812120F1B851682857A
:101B100017837812120F2A74061210847F0E021196
:101B2000FB74F712114F12300E900EDBE06401705F
:101B300010906245E4F0A3F053F4F343FE0C53908D
:101B4000F3122FBAE5C654804449F5C6E59E547F8A
:101B5000644970F8906185740FF0900ED9E0F470CC
:101B600002A3E0604E900EDAE0600814601B14607F
:101B70002E8040750A01750B00900ED9E0780A128C
:101B8000105BE50AF45280802A750A01750B0090FB
:101B90000ED9E0780A12105BE50AF45290801475B1
:101BA0000A01750B00900ED9E0780A12105BE50A65
:101BB000F452A079007F020211FB74F712114FE971
:101BC000FEEAFF74016E700C7A807B00900D40E09D
:101BD000F912332C9037A4E493F46008E493F912DB
:101BE0002E0A800953C680E59E547F70FA122FC0DA
:101BF000900EDBE064017003122E22900ED9E0F407
:101C00007002A3E0604B900EDAE0600814601A14D2
:101C1000602C803D750A01750B00900ED9E0780AA2
:101C200012105BE50A42808028750A01750B00904E
:101C30000ED9E0780A12105BE50A42908013750A0B
:101C400001750B00900ED9E0780A12105BE50A428C
:101C5000A012300E122F728A0A8B0BA80AA90BE869
:101C6000496015E5E170FCE82414F582E93400F5DB
:101C700083E0F46003E0F5E174016F700A7A01908B
:101C80000D40E0F9123380021BB574F112114F8A36
:101C90000A8B0B8C0C8D0D740F1210D7780E120F4F
:101CA0001B908512780A120EF5908512780E120E8E
:101CB000F5780A790E120D2D5015780A790E120E4C
:101CC000CD9084D2780A120D4D4015790180137899
:101CD0000E790A120ECD9084D2780E120D4D40EB83
:101CE00079007F080211FB74ED12114F8A0A8B0BE9
:101CF0008C0C8D0D74131210D7780E120F1B90855B
:101D000012780A120EF5908512780E120EF5780EE2
:101D1000790A120D2D4011780A790E120ECDAA0AF9
:101D2000AB0BAC0CAD0D8022751200751300751451
:101D3000007515017812790E120ECD7812790A12FB
:101D40000E94AA12AB13AC14AD157F0C0211FB90CC
:101D50008512780A120F1B8A828B83780A120F0869
:101D60007F040211FB74F512114F8C828D83780A67
:101D7000120F1B8A828B83780A120EE1EA2404F880
:101D8000EB3400F98C828D83A3A3A3A3E0FCA3E032
:101D9000FD88828983C3E09CF0A3E09DF08882895E
:101DA00083C3E09420A3E0944E4022908502780AF9
:101DB000120F1B8A828B83780A120EBA8A828B8357
:101DC000A3A3A3A3E02420F0A3E0344EF08080740A
:101DD000F512114FE9FE900E93E0FAA3E0FBEEC37B
:101DE00033F8E433F9749F28F582748339F583E07E
:101DF0002AF50AA3E03BF50B780A1212F69084FE4E
:101E0000120F3912195474021210848A0A8B0B8C27
:101E10000C8D0D7410780A120E5CAA0AAB0B7F04AD
:101E20000211FB74F112114F8A0E8B0F8C108D1161
:101E3000740F1210D7E0FAA3E0FB74111210D7E070
:101E4000F50AA3E0F50B74131210D7E0FEA3E0FF30
:101E5000780A1212F6EA2401F50AEB3400F50BE4D5
:101E6000F50CF50D780E790A120D6C908536780A0E
:101E7000120F1B780E790A120D6CAA0EAB0FAC1064
:101E8000AD1112195474021210848B0BEA450B60C9
:101E9000047A0180027A00EC2AFCED3400FDECF8B3
:101EA000EDF97A717B02120FE3880A890BE4F50CD5
:101EB000F50D8E828F83780A120F2AECF8EDF97AED
:101EC000717B02120FE38A0A8B0B7405780A1210D9
:101ED0005B8E828F83A3A3A3A3E50AF0A3E50BF097
:101EE0007F080211FBC082C083E9906000F0D083BC
:101EF000D08222C0E074F212123BA2AFE433FED2D1
:101F0000AFE58AA2E550051235A2800E9014BCE020
:101F1000640170065389EF85C0C0758A00C2C5751B
:101F20001C00EEA2E092AF7F0102129AC0E074F2B0
:101F300012123BA2AFE433FED2AFE58AA2E0400624
:101F4000E58AA2E550031235A2758A00758A00C29F
:101F5000EB80CCC0E074F212123BA2AFE433FED2AD
:101F6000AFE58BA2E050031235A2758B00C2E8806A
:101F7000AEC0E0C0D0E8C0E0E5A8D2AFC2C7751CD3
:101F800000A2E792AFD0E0F8D0D0D0E032C0E07449
:101F9000F112123B74FA12106EC28FE5F9FE74F55D
:101FA0006E60089014D8E064F570219016F0E0702F
:101FB0001B9014E4E024D8F8A3E03414F988828953
:101FC00083EEF09014E412274F0220589016F0E0B0
:101FD000700302205964336016901708E024F1F86A
:101FE000A3E0341612237F9016F0E06433706A90F9
:101FF00014B8E0701674F56E60089014F0E064F5A3
:10200000700990170812273812237F90170812279B
:102010004140469016E27401F07A007B0074F02A89
:10202000F874143BF988828983A3A3A3A3E0888270
:102030008983F0EA24010AEB3400FBC3EA94EEEB57
:102040009401A2D265D03340D49014B87401F01238
:102050003458901708E4F0A3F0745F6E6003022315
:10206000609016F0E0643370030223609016F5E090
:10207000F9A3E0FAE9FB9016F0E024D0601E24FEFC
:1020800070030221AC24FE70030221B124FE700310
:102090000221C224C670030221B8801D901708E4F3
:1020A000F0A3F090170C04F0A3E4F07901FAFB120E
:1020B000343A7A147B001234049016F0E060030284
:1020C00023609014D9E014607C14700302220B2466
:1020D000FD70030221DB24FE70030221E41470036F
:1020E00002220B1470030221FC24F9700302220166
:1020F00014700302221114700302223124F17003C0
:1021000002223A24FA700302225E24F770030222AC
:102110006214700302228E1470030222A51470034D
:102120000222AD1470030222BE1470030222C614F0
:1021300070030222CB24E670030222D31470030240
:10214000230D0223461236F890780EE0C0E07405A5
:102150001210D7D0E0F090780FE0C0E074041210B5
:10216000D7D0E0F0907810E0C0E074031210D7D020
:10217000E0F0907811E0C0E074021210D7D0E0F0E7
:10218000907812E0C0E074011210D7D0E0F090789F
:1021900013E0851A82851B83F07C007B067A007928
:1021A0000112236A790112371602234612345E8027
:1021B00007EA496003123440901708E4F0A3F002E4
:1021C00020B990170C7401F0A3E4F0EA49600312FF
:1021D000344C7A157B0012340480DD9014E27401D3
:1021E000F0022346790112337A9014D8E4F07A4051
:1021F000FB9014B4E0F912332C0223469014D8E477
:10220000F07A0F7B001234041223729014D8E48009
:10221000CF7A127B001234049084B61213097A40EC
:102220007B009014B4E0F91233AA74041210848075
:10223000DA7A137B0012340480D19014DCE0601A47
:102240007A167B001234049014D8E4F0C2A07A40CD
:10225000FB1223767A407B0080977A1080E47A1113
:1022600080E09016F07430F0790012337A43FE0863
:10227000D2937A147800797D00E824FF18E934FFBE
:10228000F9E84970F31AEA700302234680E67D00FC
:102290007C007B007A00790C12342E7A157B0012B8
:1022A00034040223469016F074320221E09016F0B6
:1022B0007433F012237243FE08D293022346901621
:1022C000F07434F080F012344680EB9016F07436DF
:1022D0000221E090847EC082851A82851B83AC82B5
:1022E000AD83758384D0827406120F5E851A828551
:1022F0001B83AC82AD837A0679801236B07C007B7A
:10230000067A00797012236A79700221A678007922
:102310000074C828F582741439F583E0C0E074DADB
:1023200028F582741439F583D0E0F0E8240108E937
:102330003400F9C3E89406E99400A2D265D0334092
:10234000D079021237289014E4E4F0A312271B126C
:1023500012F67C007D007AD87B141226FF121084BE
:1023600074061210847F0202129A12270D7B067ADD
:1023700000227A407B009014B4E0F91233B622F9BF
:1023800088828983EEF0901708122753F022C0E06C
:1023900074F112123B74FE12106EC28BE5C1FE7412
:1023A000F56E700690170A1223899014E7E0F8740E
:1023B0003168600574236870629014EFE064017006
:1023C0005A901704122738F988828983EEF0901703
:1023D00004122741403E9016E27401F07C007BF22B
:1023E000FA793212370A7CF07D147BF27A01793265
:1023F000123716901704E4F0A3F09014EFF0F50AEA
:10240000750B02780A1212F61226F7121084901633
:10241000F0E4800690170412274FF074F56E600800
:102420009014E6E064F57038901704E0F8A3E0F942
:10243000E849702C901706E024E6F8A3E03414F97C
:1024400088828983EEF0901706C3E0940712272E46
:1024500040079014EF7401800690170612274FF082
:102460009014E7E064F5702B90170A7401F0A3E470
:1024700012271B1212F67C007D007AE67B141226CE
:10248000FF1210849014E674F5F09017067401F0B2
:10249000A3E4F090170AC3E0940212272E5003021F
:1024A00026F29016F0E4F09014E9E0F50A9014E8B2
:1024B000E0FE9014EAE0F89014E7E024FD602914AF
:1024C000700302264D14700302267824FA7003026A
:1024D000255B14700302259B1470030225E924CCAC
:1024E000700302269A0226C7E8438D2090170C70CD
:1024F00053E4F0A3F0908588C082851A82851B83FF
:10250000AC82AD83758385D0827402120F5EEE8536
:102510001A82851B83F074011210D7122724793098
:1025200012270579301237167A177B00123404907F
:1025300014BEE4F09014E8E0F9A3E0FAE9FB1234E9
:102540005E0226C7E4F0A3F07C01FBFA7930123773
:102550000A7A187B001234040226C7438D20901794
:102560000CE4F0A3F07405686022E870157A177B1C
:10257000001234047C007B007A00793612370A029C
:1025800026C77C017B007A00793680C27C017B0003
:102590007A00793612370A7A1680B8EE7004E50AA6
:1025A000603690858AC082851A82851B83AC82AD95
:1025B00083758385D0827402120F5EEE851A828540
:1025C0001B83F074011210D71227247931122705CA
:1025D00079311237160226C77A167B001234047C32
:1025E000017B007A0079258093EE70099014E9E070
:1025F00070030226C790858CC082851A82851B8352
:10260000AC82AD83758385D0827402120F5EEE8535
:102610001A82851B83F074011210D7122724793790
:1026200012270579371237169014BEE4F07CF07D3E
:10263000147901EEFBAA0A123464750A00750B02C4
:10264000780A1212F61226F7121084807AE8701DAA
:102650007C007B017A00793412370A7CEA7D147B96
:10266000007A0079341237167A190225537C017BDF
:10267000007A00793402257CE8700C7CEA7D147BBA
:10268000007A00793580DE9014EA7401F07CEA7DEE
:10269000147B007A0079350225D2E8700F7C007B2C
:1026A000007A00793312370A7A11800D7CFF7B00A3
:1026B0007A00793312370A7A137B001234049016A9
:1026C000F0E4F09014B8F0901706E4F0A3F090173F
:1026D0000AF0A3F09014E7E0643160059014EFE491
:1026E000F09014E6E4F09014BEF09014D8F0901638
:1026F000F0F074020223627C007D007AF07B1412F9
:10270000378274022212270D7B027A002212370AC6
:10271000851A82851B83AC82AD8322F0750A0AF587
:102720000B780A22E50AF07C007B027A0022A3E003
:102730009400A2D265D03322E024F0F8A3E0341450
:1027400022C3E094F1A3E09401A2D265D033221217
:10275000275322E02401F0A3E0340022120D03FEEF
:10276000B507120D0315B607120D0344B607120D77
:10277000037DB607120D03A5B607120D03D3B607E6
:10278000120D03EAB607120D0301B707120D031766
:10279000B707120D033EB707120D0351B707120D0D
:1027A0000367B707120D037AB707120D039FB70728
:1027B000120D03DBCC06120D03DACD06120D030F4A
:1027C000CE06120D0330CE06120D0340CE06120DBA
:1027D0000361CE06120D036DCF06120D033AD0062B
:1027E000120D03ADD006120D0333D106120D037680
:1027F000D106120D03ADD106120D0333D206120D10
:102800000305D306120D0363D306120D037BD30613
:10281000120D03F5D306120D03F8D306120D03FBB8
:10282000D306120D03A2D406120D03BAD406120D5C
:1028300003EAD406120D030AD506120D03F8D506D5
:10284000120D03AED606120D03008007120D0328E9
:102850008007120D03568007120D038D8007120D9D
:1028600003F58007120D033E8107120D03898107CE
:10287000120D03C78107120D03048207120D0332E4
:102880008207120D03D98207120D03E38207120D8E
:1028900003F08207120D03238307120D03E583075C
:1028A000120D03F18307120D03098407120D0313A0
:1028B0008407120D03CFC007120D03DDC007120DF0
:1028C00003F5C007120D030DC107120D0395CF05C7
:1028D000120D0333D005120D03ABD005120D03C04A
:1028E000D105120D03FAD105120D03A3D205120D65
:1028F0000378D305120D03DCD405120D0333D5057F
:10290000120D03BAD505120D03A1D605120D03EE63
:10291000D605120D037CD705120D03A0D705120DA5
:102920000375D905120D03B6D905120D03D8D905C3
:10293000120D0359DA05120D0343DB05120D0309CD
:10294000DC05120D03BDE706120D038FE806120D1C
:102950000338E906120D037BE906120D0308EA06A7
:10296000120D0394EA06120D0375EB06120D03A473
:10297000EB06120D03A0EC06120D03E8EC06120D97
:1029800003EAED06120D032EEE06120D0354EE06B9
:10299000120D03EDC207120D039D9907120D03B32B
:1029A0009907120D03D99907120D03019B07120D08
:1029B000030B9B07120D03649C07120D03649D0714
:1029C000120D03B7FA06120D03ECFB06120D031FDE
:1029D000FC06120D0369FC06120D0327FE06120DFC
:1029E0000338C005120D039BC005120D03E0C1059D
:1029F000120D03F0C105120D0313C205120D035E83
:102A0000C205120D0303C305120D03F9C305120D10
:102A100003C3C405120D033BC605120D037DC60595
:102A2000120D031BC705120D0368C705120D038E97
:102A3000C705120D037CC905120D0381C905120DCE
:102A40000362CB05120D03B6CB05120D0318CC059E
:102A5000120D0340CC05120D03E4CC05120D03A6A4
:102A6000CD05120D03D7CD05120D03DACD05120DDC
:102A70000322CE05120D0364CE05120D03CBCE0545
:102A8000120D03A0A907120D03B3A907120D03CC61
:102A9000A907120D0317AA07120D03F2AA07120DB8
:102AA0000381AB07120D03CCAB07120D0300B0047A
:102AB000120D030CB004120D0345B004120D038A6D
:102AC000B004120D0341B104120D03C7B104120D7D
:102AD000032CB204120D0358B204120D0391B20478
:102AE000120D03A5B404120D0381B604120D036C7C
:102AF000B804120D03A3B904120D0303BC04120D94
:102B000003EFBC04120D0335BE04120D0342BF04D3
:102B1000120D035FBF04120D0397BF04120D03B122
:102B2000BF04120D0319C004120D03B3C404120D27
:102B30000354C504120D03A5C504120D03CCC5042E
:102B4000120D031AC604120D0338C604120D038CAD
:102B5000C604120D0365C704120D03ECC804120D60
:102B60000374C904120D0323FB05120D032DFB058D
:102B7000120D03F8FB05120D0313FC05120D0339AA
:102B8000FC05120D037DFC05120D03B5FC05120DAD
:102B900003DEFC05120D0357FD05120D036CFD0548
:102BA000120D0381FD05120D03B8FD05120D03CCB6
:102BB000FD05120D03FDFD05120D0337FE05120D77
:102BC0000363FE05120D03A8FE05120D030DFF059C
:102BD000120D0356FF05120D0380FF05120D03A50C
:102BE000FF05120D03DD9107120D03A79207120DC9
:102BF000038A9307120D03009407120D03429407F2
:102C0000120D036F9507120D03CAA806120D03F3E8
:102C1000A806120D030CA906120D0351AA06120DE7
:102C2000032FAB06120D034EAB06120D03DBAB06F2
:102C3000120D031EAC06120D036BAD06120D030A36
:102C4000AE06120D0389B006120D0320B106120D57
:102C500003F4B106120D03D6B206120D0342B406F8
:102C6000120D03D5B406120D030FBC07120D037825
:102C7000BC07120D03CCBC07120D03F3BC07120DE9
:102C8000033C8907120D03A98907120D03F4890774
:102C9000120D03E98A07120D03E58B07120D03CF0E
:102CA0008C07120D0319D706120D035BD706120D00
:102CB0000335D806120D030ED906120D0309DA06E4
:102CC000120D03E8DA06120D0354DB06120D031B86
:102CD000DC06120D0386DC06120D03EDDC06120D78
:102CE0000318DD06120D0389DD06120D031CDE0636
:102CF000120D0385DE06120D039ADE06120D03E2A5
:102D0000DE06120D03FBDE06120D0360DF06120D58
:102D10000363DF06120D030BA107120D0333A10796
:102D2000120D0371A107120D032FA207120D039AB2
:102D3000A207120D03B6A207120D03DEA207120DA1
:102D4000030EA307120D031DA307120D0397A3077C
:102D5000120D03BDA307120D03BCEC05120D039960
:102D6000EE05120D0394F005120D0367F105120D27
:102D700003B2F105120D03FDF105120D030FF2056B
:102D8000120D034FF205120D0384F205120D03D04C
:102D9000F205120D03FFF205120D0322F305120DC9
:102DA000036FF305120D03F8F305120D0305F60585
:102DB000120D03F0F705120D0333F805120D0398F9
:102DC000F905120D03D9F905120D034CFA05120D80
:102DD0000398FA05120D03C3FA05120D03F8FA055C
:102DE000120D034CB506120D0377B506120D035EE6
:102DF000BC06120D0382BE06120D033DC006120D65
:102E0000039AC106120D03DBC904120D0372CA0432
:102E1000120D039FCA04120D03E5CA04120D032408
:102E2000CC04120D03BBCD04120D0335CE04120DDC
:102E30000350CE04120D03C5CE04120D03F4CF04CB
:102E4000120D034FD104120D0351D204120D03AE23
:102E5000D304120D03C7D304120D0324D404120D9E
:102E60000306D504120D0339D504120D03A9D504A8
:102E7000120D0323D604120D0372D604120D033E65
:102E8000D704120D0343D804120D0322D904120DE6
:102E900003ADD904120D031BDA04120D038FDA04FB
:102EA000120D03B8DA04120D0377DB04120D03F1DF
:102EB000DC04120D030EDD04120D032DDD04120DD2
:102EC00003BEDD04120D03E3DD04120D030BDE046B
:102ED000120D0386DE04120D03E0DE04120D03342E
:102EE000E004120D03F1E004120D03C4E104120D1D
:102EF00003008006120D03508006120D035C80064D
:102F0000120D03398106120D03698106120D03A10A
:102F10008106120D031B8206120D039D8206120DFF
:102F200003D58206120D03278306120D0364830660
:102F3000120D03898506120D03B58706120D03B025
:102F40008906120D038B8B06120D03F43F00120D40
:102F500003E19905120D032B9A05120D030AA00532
:102F6000120D038BA105120D03EAA705120D03E54F
:102F7000A805120D0322A905120D0345A905120D7E
:102F80000387A905120D0390A905120D039AA9053F
:102F9000120D0386AA05120D037AAB05120D03F27A
:102FA000E104120D036AEC04120D0370EC04120D1F
:102FB000037CF304120D036E9D07120D03049E079C
:102FC000120D031A9E07120D03949E07120D03EAB9
:102FD0009E07120D03289F07120D03859F07120DF0
:102FE0000302A007120D030BA007120D0317A00781
:102FF000120D032AA007120D0366A007120D037C11
:10300000A007120D03DBA007120D03918D07120D0F
:10301000039E8D07120D03B88D07120D03F78D0760
:10302000120D03358E07120D039A8E07120D03AF92
:103030008E07120D03BA8E07120D03C78E07120DED
:1030400003DE8E07120D03EC8E07120D03F78E07B9
:10305000120D03038F07120D03128F07120D031DAC
:103060008F07120D03408F07120D03E98F07120D12
:1030700003F98F07120D03139007120D0330900709
:10308000120D034C9007120D03719007120D037B74
:103090009007120D038F9007120D03AE9007120DCB
:1030A000030F9107120D03159107120D031B9107D2
:1030B000120D03219107120D032D9107120D0360CC
:1030C0009107120D03518E06120D03D38E06120DB9
:1030D000037C8F06120D03C49006120D03D29206D4
:1030E000120D03B89306120D03ED9306120D030F94
:1030F0009406120D03B89406120D03889606120D5D
:1031000003B19606120D03299706120D035B97066D
:10311000120D03689706120D03B39706120D03D71D
:103120009706120D03289A06120D03329B06120D04
:10313000038E9B06120D033EDE05120D034FDF05C5
:10314000120D0333E005120D033DE005120D035F80
:10315000E005120D036BE005120D030FE205120DE1
:10316000033CE205120D0352E305120D03A7E3052C
:10317000120D03F6E405120D03CBE505120D03272E
:10318000E605120D0392E605120D03C7E605120DC2
:10319000030AE705120D03D4E905120D03ECE90556
:1031A000120D037DEA05120D038BEA05120D03D8FB
:1031B000EA05120D03E6EA05120D0352EB05120DA6
:1031C00003CDEB05120D0324EC05120D03BDC10662
:1031D000120D03DFC106120D03F0C306120D03AF7B
:1031E000C606120D03D9C706120D0397C806120DA5
:1031F0000383C906120D0345B407120D036AB40711
:10320000120D03E0B407120D0337F804120D03404A
:10321000F804120D0349F804120D0321F904120DEC
:1032200003D2FA04120D0302FB04120D032DFB045A
:10323000120D035DFB04120D0388FB04120D03BC89
:10324000FB04120D03E8FB04120D032BFC04120D0A
:103250000356FC04120D039DFC04120D03F2FC0442
:10326000120D0334FD04120D038EFD04120D03B97B
:10327000FD04120D0308FE04120D0338FE04120DA6
:103280000363FE04120D0391FE04120D03B4FE0449
:10329000120D0376C307120D03A2C307120D03CF4D
:1032A000C307120D03D9C307120D03E9C307120D9B
:1032B00003C99507120D03139707120D03479907CA
:1032C000120D03669907120D03909907120D0387DB
:1032D000DF06120D0391DF06120D03D2DF06120D79
:1032E000031BE006120D0355E006120D03ABE006CA
:1032F000120D03CCE006120D037BE306120D0384CE
:10330000E306120D03D8E306120D0301E406120DC5
:10331000030BE406120D0379E406120D0309E5061A
:10332000120D0364E506120D0392E506120D031A51
:10333000E606120D0359E606120D038EE606120D7F
:1033400003A0E606120D03BFE606120D03C8E6064B
:10335000120D038FE706120D0326BE07120D038020
:10336000B007120D03B6B007120D03EAB007120D35
:103370000337B207120D0357C207120D036DC207C0
:10338000120D0377C207120D03C1C207120D03F31A
:10339000C307120D03A88407120D03BB8407120D87
:1033A000037C8507120D03BB8507120D03D8850723
:1033B000120D03118607120D035E8607120D03908E
:1033C0008607120D03C78607120D03D08807120D5A
:1033D0000349B907120D036AB907120D0399B9071A
:1033E000120D0331BA07120D0349BA07120D038BF0
:1033F000BA07120D03F7BF07120D032CC007120DF9
:10340000034CC007120D0358C007120D0305A40793
:10341000120D032AA407120D0354A407120D03E989
:10342000A607120D03F7A607120D0302A707120D38
:103430000305A707120D03ACA707120D03D1A807B8
:10344000120D03F0A807120D0305A907120D0316AC
:10345000A907120D032AA907120D033AA907120D95
:103460000354A907120D0368A907120D03AAC40784
:10347000120D03AF8505120D038D8705120D032C68
:103480008905120D03D78905120D03578A05120D00
:1034900003DC8A05120D03058B05120D03578B05FE
:1034A000120D03328F05120D03A98F05120D03C0F3
:1034B0009005120D03FA9005120D033B9105120DB4
:1034C00003829205120D03D89205120D0321930574
:1034D000120D03909305120D03FC9305120D032D9D
:1034E0009405120D03459405120D035E9505120D0A
:1034F000036E9505120D03249705120D033B9705E6
:10350000120D036D9705120D030F9905120D03A3FC
:103510009905120D03A6C107120D03B7C107120DBD
:103520000300C507120D033FC507120D03EEC507C3
:10353000120D03F9C507120D03FEC507120D030A8C
:10354000C607120D031DBF07120D032DBF07120D75
:10355000033FBF07120D03F1BF07120D0324BD0780
:10356000120D03A9BD07120D030DBE07120D03CCEA
:10357000BA07120D0300BB07120D0329BB07120D7A
:1035800003A0BB07120D0371B207120D039CB20713
:10359000120D0319B307120D0343B307120D039560
:1035A000B307120D03F0B307120D0339B407120D60
:1035B000033CB407120D03FAFF04120D03FDFF04D0
:1035C000120D03DE3F00120D03EE3F00120D03F15A
:1035D0003F00120D0354FF04120D039FFF04120D50
:1035E00003F83F00120D033DAE07120D03D6AF07DF
:1035F000120D0337B007120D037DB007120D03C97A
:10360000EE06120D030BEF06120D0326EF06120D48
:1036100003F7EF06120D03D9F006120D03E6F206CA
:10362000120D0358F306120D033AF406120D03218E
:10363000F506120D03B1B707120D0303B807120DFB
:103640000376B807120D03E3B807120D03F6AB07B4
:10365000120D0320AC07120D03EFAC07120D03CBC4
:10366000AD07120D03A83700120D03743800120DB8
:1036700003B53800120D03EF3800120D034D390069
:10368000120D03A13900120D03FF3900120D03952D
:103690003A00120D039D3B00120D03273D00120D51
:1036A00003C53D00120D032C3E00120D033F3E00EA
:1036B000120D03333F00120D037C3F00120D03DB9C
:1036C0009B06120D030D9F06120D039EA006120D00
:1036D00003F5A006120D0312A106120D0392A10616
:1036E000120D030EA306120D03DDA306120D034AED
:1036F000A706120D0334A806120D0392AD05120D94
:1037000003CFAD05120D0300AE05120D0332AE0559
:10371000120D03AFAE05120D03FBAE05120D03A48F
:10372000B005120D037FB305120D03C5B605120DCA
:10373000035CB705120D03E6BA05120D032CBD0597
:10374000120D0342BF05120D03A1BF05120D036543
:10375000F506120D03B5F506120D03D2F506120D8E
:1037600003D9F606120D0340F706120D03EAF70619
:10377000120D03EDF806120D0367FA06120D03751C
:10378000FA06120D03CDFF05120D0349C507120DF0
:103790000390C507120D03C6C507120D03DDFF0612
:1037A00031B1E1FFFFFFFFFF74F41210E374FC126C
:1037B000106E7E00901446E4F0901443F07F7D7507
:1037C0000A04750B00780A1212F674021210D7ACB4
:1037D00082AD837A007B00EF123DBE121084851A01
:1037E00082851B83C082C083908516780A120F1BC6
:1037F000D083D082780A120D187019901443E060BB
:1038000010F912367AEFF912367A901443E4F08008
:1038100021EF80FA851A82851B83780A120F1BE537
:103820000A450B450C450D7004EFFE8005EFF912BB
:10383000367A0FEFC3947F4086901443E07026EEF3
:103840007018797D1236689014447404F0A3E4F083
:10385000901446E0601979008017F0123680EEF976
:10386000123692800AEE6004F912367412368079AC
:103870000102394374F71210E374FC12106EE9FE72
:10388000908516120F39851A82851B83120F458584
:103890001A82851B83AC82AD837A007B0012369E30
:1038A000901446E07005EE901443F07404121084F6
:1038B0007F010211B5C082C08374FC12106E908427
:1038C000A2120F39851A82851B83120F45851A8231
:1038D000851B83AC82AD837A007B00901443E0F9B2
:1038E00012369E7404121084D083D082020D0074AC
:1038F000F41210E374FF12106E890A901446E0600F
:10390000089014467401F080361235667E007F0000
:10391000750C01750D00780C1212F674021210D796
:10392000AC82AD83EEFAEFFBA90A123DBF12108400
:10393000851A82851B83E0F470C712399540D174D3
:1039400001800274041210847F040211B574F41211
:1039500010E374FF12106E890A7E007F00750C015F
:10396000750D00780C1212F674021210D7AC82ADED
:1039700083EEFAEFFBA90A123DBF121084851A826A
:10398000851B83E0F46007A90A123674800512399A
:103990009540CA80AAEE24010EEF3400FFC39408BC
:1039A0002274F41210E374FC12106E7EFC7F077513
:1039B0000A04750B00780A1212F674021210D7125C
:1039C0003DB2121084851A82851B83C082C0839009
:1039D0008502780A120F1BD083D082780A120D1844
:1039E000700AEE24FCFEEF123A8A50C3EE2404F86B
:1039F000EF3400F9901444E8F0A3E9F0023943747D
:103A0000F41210E374FC12106E890BEAFEEBFF8CCB
:103A10000AEE24FCFEEF123A8A4068750C04750D1C
:103A200000780C1212F674021210D7AC82AD83EE3D
:103A3000FAEFFBA90B123DBF12108474021210D7CB
:103A4000E0F8A3E0F9851A82851B83850A0CE065FE
:103A50000C7002A3E0700AEEC398FAEF9400FB80AA
:103A600026E9548070ABE82404FAE93400FBC3EE85
:103A70009AEF9B400EEEC398F8EF99F9E824FCFE0C
:103A8000E980937A007B0002394334FFFFC3EE9450
:103A900004EF94002274EC1210E374FC12106E898F
:103AA0000CEAFEEBFF8C0D74181210D7E0F510A392
:103AB000E0F511741A1210D7E0F50EA3E0F50F85AA
:103AC0001A82851B8374FFF0A3F0E5114480F9741A
:103AD000021210D7E510F0A3E9F0EE2510F50AEF79
:103AE0003511F50B851A82851B83AC82AD83AA0A3A
:103AF000FBA90C12369E74021210D7123B8474027A
:103B0000781012104CE510F512901446E0705075C4
:103B1000110078101212F6AC0EAD0F8E108F1174CA
:103B200002781012104C850C14F5157409781412D3
:103B3000105BE5102400FAE5113515FB12356074B1
:103B400002121084E512F51078101212FAAC0EADC4
:103B50000FEEFAEFFBA90C1236987401121084854F
:103B60000D0EE50E851A82851B83F0A37480123B2F
:103B700088851A82851B83123B8474041210847F0B
:103B80000C0211B5A3E0547FF0851A82851B83AC2B
:103B900082AD83AA0AAB0BA90C12369E2274EA12DC
:103BA00010E374F812106E8912750FFF747D6512A0
:103BB0007005750E7E8003750E7D750C04750D0005
:103BC000901444E024FCFEA3E08005EE24FCFEEF0C
:103BD000123A8A5003023CFA901446E06003023D18
:103BE00014750A04750B00780A1212F6740212108A
:103BF000D7AC82AD83EEFAEFFBA912123DBF1210D3
:103C000084851A82851B83E0F47003A3E0F4702D91
:103C100074021210D7E0F8A3E0F9548070AD123F9F
:103C200029EE98EF995003023D1474021210D71236
:103C30003D1EF8EF99F9E824FCFEE98093851A828D
:103C4000851B83A3E0548070E1851A82851B8385E0
:103C50000F0AE0650A7002A3E060CF851A82851B17
:103C600083E0F50FFCAA0CAB0DA90E1236868B0B68
:103C7000EA450B70B574021210D7123D1EF50AEF1B
:103C800099F50B88168917751000751100751404C5
:103C900075150078141212F674061210D7AC82ADA6
:103CA00083E50A2510FAE50B3511123DB91210848F
:103CB00074041210D7AC82AD83E50C2510FAE50D23
:103CC0003511FBA90E12369EE5102404F510E511FE
:103CD0003400F511C3E5169510E517951150AE7433
:103CE000021210D7E02404F8A3E03400F9E50C2810
:103CF000F50CE50D39F50D023C2AA90E1236689037
:103D00001446E0700A901444E50CF0A3E50DF0A908
:103D10001212367474081210847F0E0211B5E0F886
:103D2000A3E0F9EEC3982274F01210E374FC1210B1
:103D30006E890D8A0A8B0BECFEEDFF74141210D7FE
:103D4000E0F50C8014E50A2404F50AE50B3400F5CF
:103D50000BEE2404FEEF3400FF850C0E74FF250EDD
:103D6000F50C04604375100475110078101212F6FA
:103D700074021210D7AC82AD83AA0AAB0BA90D1244
:103D80003DBF12108478101212F6EEFCEFFD7402A3
:103D90001210D7AA82AB831232E47402121084E9A3
:103DA00070A39014467401F074041210847F08020A
:103DB00011B5AC82AD83EEFAEFFB901443E0F9123B
:103DC000355A74022274F11210E389108A0A8B0B9F
:103DD000ECFEEDFF901446E0704D750C01750D0082
:103DE000780C1212F68A0C8B0D7402780C12104C9F
:103DF000890EF50F7409780E12105BE50C2400FA99
:103E0000E50D350FFB1235607402121084750C013C
:103E1000780C1212FAEEFCEFFDAA0AAB0BA91012F5
:103E2000369874011210847F070211B5C082C083D6
:103E3000123662E970047901800279000238E87470
:103E4000F01210E374FF12106E890A8A0B8C0C8D2D
:103E50000DAC0A123F678A0E8B0FAE0EAF0FEE4FFE
:103E6000604D751000803B750E01750F00780E12C5
:103E700012F674021210D7123DB2121084851A8203
:103E8000851B83E0F885100EE50C250EF582E50D07
:103E90003400F583E0687017EE24010EEF3400FF64
:103EA0000510E510C3950B40BEE50B6510607385EA
:103EB0000B0EE50E2403F8E43400F97A047B0012BB
:103EC0000FDB881089117402781012105B85100EB8
:103ED00085110F901444E0250EF8A3E0350FF91278
:103EE0003F29E89401E994084003123FD2780C126C
:103EF00012F6780E1212F6AC0A123F6E12368C745D
:103F000004121084901446E06004790A8016E50ECD
:103F10002404F8E50F3400F9901444E028F0A3E0FD
:103F200039F079007401023DAAE82404F8E934006C
:103F3000F9C32274F41210E3890C8A0DECFEEDFF34
:103F4000AC0C123F67EA4B6019850D0A750B0078BF
:103F50000A1212F6EEFCEFFD123DBA12108479003F
:103F60008002790A023948123F6E12368622901476
:103F700044E0FAA3E0FB901443E0F92274F012103D
:103F8000E3E9FE74BA2EC3941A400479028040908B
:103F90001444E0F50AA3E0F50BE4F50CF50D90856B
:103FA0003A780E120F1B780A790E120D6C8E0EE401
:103FB000F50FF510F511740B780E120E75780E7959
:103FC0000A120D2D4007123FD279008002790A02B1
:103FD0003DAD12366E901443E0F912369222C08243
:103FE000C0839013DAE0F9D083D082020D00020D75
:103FF00000020D00020D00FF851C87C2AF020D00FC
:10400000FFFFFFFFFFFFFFFFFFFFFFFFFFFFFFFFC0
:10401000FFFFFFFFFFFFFFFFFFFFFFFFFFFFFFFFB0
:10402000FFFFFFFFFFFFFFFFFFFFFFFFFFFFFFFFA0
:10403000FFFFFFFFFFFFFFFFFFFFFFFFFFFFFFFF90
:020000040002F8
:10300000C082C083E9901825F002B28474F71210D0
:10301000E3E9900C5FF07C977D0C7AFF7BFF122B2D
:103020003A900C6074FFF0A3F0A3E4F0A3F07905EC
:10303000122AC2900C5FE0F91229EA7A587B2B120F
:103040002D1A02BF9274F41210E38A0A8B0BEB5410
:10305000806030900C5FE0F91233148A0C8B0DAE57
:103060000CAF0DEE4F60138E828F83E064B070035F
:10307000122ADAEEFAEFFB123302AA0AE50B648099
:10308000FB80047A007B0002B25374F21210E374E6
:10309000FC12106EEAFEEBFF74121210D712C47904
:1030A000EE4F700302B12D74021210D7EEF0A3EFB1
:1030B00012B48EECF0A3ED12B48EAA82AB83122967
:1030C000E4E9F50C706AE50A450B60648E828F8333
:1030D00012C45FEE4F60567A067B001233688A0E88
:1030E0008B0FA80EA90FE8497005750C1380418855
:1030F000828983E412B13AEEF0A3EF12C48AE50AA2
:10310000F0A3E50BF0900C6512B1C1900C65700551
:1031100012BF3C801B12BF2A8003EAFCEBFD8C82AD
:103120008D8312B1C170F38C828D8380E3750C02A4
:10313000A90C740412108402C679F0A312C430A33F
:103140002274F21210E3890CE975F017A4FEAFF0B7
:10315000900C64E4F0900C6212B1C1600A12336EFC
:10316000900C62E4F0A3F0EEFAEFFB1233688A0AE7
:103170008B0BEA450B602FEEFCEFFD79001232EA73
:10318000900C62E50AF0A3E50BF07B00800812B119
:10319000ABE4F0A3F00BEBC3950C40F2E50C900C04
:1031A00064F079008002791302C679EB75F017A4F8
:1031B000F8A9F0900C62E028FAA3E0398A82F5833E
:1031C0002212BBCEEA4B2274F41210E3740C1210DC
:1031D000D712C454FEE9FF750A00750B00800CE598
:1031E0000A2401F50AE50B3400F50BC3E50A9CE55A
:1031F0000B9D5032850A0C850B0D7403780C121050
:103200005BEA250CF8EB350DF988828983A3A3A32B
:10321000A3A3A312C011EE650C7003EF650D70BF80
:10322000E8FAE9FB80047A007B00802774F412102E
:10323000E37900EAA2E0501B750A84750B84780AD2
:103240001212F67C047D007A277B18122ABC7402C5
:103250001210847F040211B5C082C083900C6512E5
:10326000B28B601C88828983A3A3E06A7003A3E009
:103270006B8882898370E8A3A3A3A312BBCA8004CE
:103280007A007B00D083D082020D0012C75FE8492C
:103290002274EE1210E374FC12106EEAFEEBFF854E
:1032A0001A82851B83E4F0A3F0EE240212BF1CEE09
:1032B000240512C437EE2404F510EF12B843E024BD
:1032C000FE603924FC604624FE605224FE605E24C9
:1032D000FE700302B3A424FE700302B40824FE703F
:1032E0000302B41724FE700302B42624FC70030208
:1032F000B43524FE700302B44402B481900C7E7491
:1033000017F0A3E412B49612276202B481851A82E0
:10331000851B83AC82AD83122AE002B451851A82E8
:10332000851B83AC82AD83122AE602B451850E0A56
:10333000850F0B74021210D7AC82AD83850A82858B
:103340000B8312BBCA122A088A0E8B0FAC0EAD0F6C
:10335000EC4D603BE4F50EF50F780E1212F6750E8B
:103360007E750F0C780E1212F6750E7F750F0C78A5
:103370000E1212F674081210D712130D12C8DB12B7
:103380001084E9F50E700B12BBC012277A800F75FE
:103390000E01850A82850B8312B48412BF3C850E10
:1033A0000A02B45474021210D7AC82AD83850E8227
:1033B000850F8312B995603C850E82850F83A3A388
:1033C00012130D75127E75130C78121212F6751207
:1033D0007F75130C78121212F674081210D712139C
:1033E0000D12C8DB121084E9F50B700B12BBC01272
:1033F0002780800F750B01850E82850F8312B484A0
:1034000012BF3C850B0A804C851A82851B83AC82D7
:10341000AD83122AEC803A851A82851B83AC82AD7B
:1034200083122AF2802B851A82851B83AC82AD839E
:10343000122AF8801C851A82851B83AC82AD831208
:103440002AFE800D851A82851B83AC82AD83122BE8
:1034500004E9F50AE50A60298E828F83A3E06414EB
:10346000601F851082851183E0900C7E12B48E124D
:10347000C75B900C7F12BF3CE50AA312B4961227DB
:103480005C02BE2B12C75F851A82851B8322F085E2
:103490001A82851B8322F07C7E7D0C850C82850D33
:1034A0008312BBCE2274EE1210E374FC12106E8AEB
:1034B0000C8B0D8C108D11EA2405F50AEB3400F508
:1034C0000B7C157D0079007A7E7B0C1232EAE50ACE
:1034D0002402F50EE50B12C43A851A82851B8385FA
:1034E000821285831378121212F6850A82850B8365
:1034F000A3A3A3A312B98C1212F6E50A2405F512B0
:10350000E50B3400F51378121212F6850E82850F42
:103510008312BCE1122A0274061210848A128B13E1
:10352000AE12AF13E50C2402F50CE50D12BF1FEE31
:103530004F700302B663801774021210D712BBCA11
:1035400088828983EAF0A3EBF0900C7EE004F0908F
:103550000C7EE0C39405400302B663E4F512F51354
:1035600078121212F675126775130C78121212F691
:1035700075126875130C78121212F674061210D7B1
:1035800012130D7910EEFCEFFD12C8DD121084E964
:10359000705E850A82850B83A3A3A3A3A3A3A3E0E4
:1035A000F8900C67E068704812B98C1212F67C68CB
:1035B0007D0CE50A2408FAE50B3400FB1232E474B2
:1035C00002121084E960298E828F83A3A3A3A31221
:1035D000BBCA900C7EE0F5127402781212105B7474
:1035E0007F2512F582740C3513F583EAF0A3EBF016
:1035F00074021210D785821285831378121212F684
:1036000074021210D712130D850E82850F8312BB20
:10361000F01210848A128B13AE12AF13900C7EE05E
:10362000F5127513007402781212105B747E251265
:10363000F8740C3513F988828983A312B1C1700321
:1036400002B52FE82403080808E93400F9EE4F60BA
:103650000302B5388882898374FFF0A3F0900C7E52
:10366000E004F0900C7EE0600A12BBC012276E7975
:1036700000800B850A82850B8312BF33790A02BE54
:103680002B74EA1210E374FE12106E8C148D15EA7E
:103690002405F50EEB12C8C512C463750A00750B3C
:1036A00000EA2402F512EB3400F513851A82851B1B
:1036B0008385820C85830D780C1212F6850E828527
:1036C0000F83A3A3A3A312B8591212F6E50E240583
:1036D000F50CE50F12BF1F780C1212F6850E8285CD
:1036E0000F8312B85D122A0274061210848A0C8BA2
:1036F0000DEA450D700302B7FEEA2404F510EB1243
:10370000B84312C4638A828B83A3A3A3E0F9851212
:103710008285138312BBD4600302B7FEE4F516F56D
:103720001778161212F675166775170C781612129E
:10373000F675166875170C78161212F674061210C4
:10374000D712130D7913AC0CAD0D8512828513833E
:1037500012C8E3121084E9F50B600302B7FE900C67
:1037600067E0F8E50A7009E02402900C7FF080140D
:10377000900C7FE0FCE82402FAE43400FBEA6C7071
:1037800001EB707E850A82AA8212B983941412B961
:103790007B506B851082851183E0C0E074802A1213
:1037A000B83AD0E0F0050A851082851183A3E0C005
:1037B000E0850A0C7480250C12B83AD0E0F0050AB6
:1037C000900C6712B8591212F67C687D0C850A0CB1
:1037D0007480250C12B84D121084900C67E0250AF5
:1037E000F50A74FF6E700374FF6F6012EE24010E11
:1037F000EF3400FFE50AC39414500302B6ABE50AA8
:10380000601312BBDE85128285138312BBCA122796
:103810007479008014E50B7003750B0A851482859A
:103820001583EEF0A3EFF0A90B74021210847F0E43
:103830000211B5850A0E7480250EF582740C3400D1
:10384000F583223400F511851082F58322FA740C79
:103850003400FB1232D274022212C49922A3A312A2
:10386000B8632212BF2AFDEEFAEFFB2274EE1210AB
:10387000E374FE12106E8C108D11EA2405F50EEB28
:1038800012C43A750D00900C7EE4F0F50CEA2402A7
:10389000F50AEB3400F50B8044900C7EE0FA900CB6
:1038A00067E0F812B983941712B97B400D900C7E33
:1038B000E0F87416C398900C67F012B98C1212F6E7
:1038C0007C687D0C747F2AFA740C12B85012108434
:1038D000900C67E0F8900C7EE028F0050CE50E24D3
:1038E00016F582E50F12B83EE0F8E50CC398507467
:1038F000900C7EE0C39416506BE50CC333F8E433B0
:10390000F9E50E28FEE50F39FF851A82851B83AC89
:1039100082AD838E828F8312B9957008750D011266
:10392000BF2F8050E4F512F51378121212F67512BB
:103930006775130C78121212F675126875130C78ED
:10394000121212F674061210D712130D7916850A88
:1039500082850B8312C8E3121084E9F50D7003020F
:10396000B89980BB7C7E7D0C850A82850B8312BB57
:10397000CA122786A90D740202BE2DE99400C36500
:10398000D03322EA28F8E43400F9E822E0F5127591
:10399000130078122212BE228A128B13AC12AD13BE
:1039A000EC4D2274EA1210E374FC12106E8A0E8B36
:1039B0000F8C148D15EA2405F50CEB12BF1F750A48
:1039C00000750B00E50C2402F512E50D3400F5132B
:1039D00074021210D785821085831178101212F6A6
:1039E000850C82850D83A3A3A3A312C43F1212F6F4
:1039F000E50C2405F510E50D3400F51178101212D0
:103A0000F685128285138312BF2512BBC4122A02C7
:103A100074061210848A108B11AE10AF11E50E24BB
:103A200002F510E50F3400F511803888828983741F
:103A3000FFF0050A12B83374FFF0050A900C67E036
:103A4000F50E750F00780E1212F67C687D0C850A53
:103A50000E7480250E12B84D121084900C67E0256C
:103A60000AF50AEE4F60278E828F83A3A3A3E0F9A5
:103A700085108285118312BBD4EE240412C437E969
:103A80006027850E82850F8312BBB612BF3CE50A04
:103A9000700302BB9C12BBDE85108285118312BBB2
:103AA000CA12278C790002BBB1E4F516F517781617
:103AB0001212F675166775170C78161212F675162F
:103AC0006875170C78161212F674081210D71213B4
:103AD0000D7911EEFCEFFD85108285118312C8E38C
:103AE000121084E9F50B709A850A82AA82EA900C7A
:103AF000677009E02404900C7FF08025E0F8900CBA
:103B00007FE0F516E82404FCE43400FDEC65167053
:103B100001ED708112B983941212B97B400302BA8D
:103B200095850E82850F83E0C0E074802A12B83A32
:103B3000D0E0F0050A850E82850F83A3E0C0E01275
:103B4000B833D0E012BBF985820E85830F780E1250
:103B500012F674041210D712130D85128285138386
:103B600012BBF01210848A0E8B0FAE0EAF0F850AB7
:103B70000E7480250EF8740C3400F9EE4F700302B9
:103B8000BA2B851A82851B83E08882898312BBF950
:103B9000A3E0C0E012B833D0E002BA39E50B7003FD
:103BA000750B0A850C82850D8312BBB612BF3CA92A
:103BB0000B740402B82B12C75F851482851583220B
:103BC0007C7E7D0C850C82850D8312BBCE22E0FAB3
:103BD000A3E0FB2212BBCE1229F0E9F50B22900CD8
:103BE0007FE0F5F0E50A84900C7EF07C7E7D0C226F
:103BF00012B863122A0E740422F0050A851A82850F
:103C00001B832274EC1210E374FE12106E8A0A8B6E
:103C10000B8C108D11EA2405FEEB3400FF12BE0C54
:103C2000EE241812C437EA450D700302BCAF12BD72
:103C3000F5502912BCD48A128B13EA4513606B79B4
:103C400012AC0CAD0D850A82850B8312BBCA85129E
:103C5000828513831210E1E9F50C7058E4F50CF538
:103C60000D780C1212F68E828F83A3A3E0F50C78E8
:103C70000C1212F6EE240312BF1C780C1212F68EF0
:103C8000828F8312BCE1122B287406121084E9F58E
:103C90000C7021850E82850F83E0701F850A828556
:103CA0000B8312BBCA1227928011750C0E80097506
:103CB0000C018004E50C600312BF2F850E82850F76
:103CC00083E0600479008002A90C74021210847FE2
:103CD0000C0211B5851A82851B8312BBCE122B16DE
:103CE0002212BF2AFD850A82850B8312BBCE227465
:103CF000EE1210E374FE12106E8A0A8B0B8C0E8D7E
:103D00000FEA2405FEEB3400FF75100012BE0CEA2A
:103D1000450D700302BDD312BDF5502C12BCD48AE0
:103D2000108B11EA4511604A7912AC0CAD0D850A71
:103D300082850B8312BBCA8510828511831210E124
:103D4000E9F510600302BDD6850A82850B8312C097
:103D500011AA0CFB12BDE770147AFF7BFF12BDE7BE
:103D6000606C88828983E50CF0A3E50DF0750C008A
:103D7000800775100E805F050C900C64E0FAE50C6E
:103D8000C39A504AE50C75F017A4FAABF088828903
:103D900083A3A3E02AFAA3E03BFB8A828B8312BFB2
:103DA00025EC4D70D2750C17750D00780C1212F6BB
:103DB000EEFCEFFD1232D27402121084EEFCEFFD25
:103DC000850A82850B8312BBCA122798801475104E
:103DD00009800375100112C757850E82850F831263
:103DE000BF3CA91002B976122B0A8A128B13A812B3
:103DF000A913E84922E50A2402F50AE50B3400F587
:103E00000B8A828B83A3A3A3E0A2E522851A828575
:103E10001B83AC82AD838E828F8312BE228A0C8B71
:103E20000D22E0FAA3E0FB122A0822740412108487
:103E30007F0A0211B574EC1210E38C128D13EA2480
:103E400005F50EEB12C43A751100EA2402F50CEBED
:103E500012BF1F850C82F58312BBCA12C969700399
:103E600002BF117510008071850E82850F83E0649A
:103E700001704F8E828F83A3A312130D8E828F83C6
:103E8000A3A3A3A3E0F51475150078141212F6EE9F
:103E90002405F514EF3400F51578141212F612BB50
:103EA000C4122B287406121084E9F5116014850ED3
:103EB00082850F83E4F012C757851282851383121F
:103EC000BF3C7C177D007900EEFAEFFB1232EA8EE0
:103ED000828F83E4F0A3F00510900C64E0F8E51005
:103EE000C398501EE51075F017A4F8A9F0850A8252
:103EF000850B83A3A312C8CF12BF25EC4D6003022C
:103F0000BE68850A82850B8374FFF0A3F0E511700B
:103F10000612BBC412279EA91102BCCFF50CEF34C8
:103F200000F50D22A312BF2AFD22E0FCA3E0228EA1
:103F3000828F8312C75F851082851183E8F0A3E921
:103F4000F022C082C083900C60E06A7003A3E06B33
:103F500070067A607B0C80047A007B0002B2847465
:103F6000F71210E37F00EF75F003A4F8A9F0EC2836
:103F7000F8ED39F988828983E06A7003A3E06B70F9
:103F800006E8FAE9FB800B0FEFC3940240D87A00F1
:103F90007B007F010211B574F61210E312C5487060
:103FA000067A007B008007A3A3A3A312BBCA02C6A4
:103FB0000974F21210E3E9FE740E1210D712C01148
:103FC00074101210D712C4798C828D83E064027051
:103FD0003BA312C75B88828983E0F50EA3E0F9A8B2
:103FE0000E74026870037429697021750E02750FD2
:103FF00000780E1212F6780A1212F6780C1212F6E7
:10400000EEF9122B4C74061210848002790102C65C
:1040100079E0F50CA3E0F50D2274E81210E374FBCF
:1040200012106EE9851A82851B83F08A188B198C11
:10403000108D11741F1210D712C47974211210D769
:1040400012C01174231210D712C4637512008C822F
:104050008D83A3A3A3E0A2E4502A741D1210D712EB
:10406000BCDA8A828B83E5824583700302C125799D
:104070000AAC10AD11AA18AB191210E1E9F51260E3
:104080000302C128851082851183E0640260030267
:10409000C3DEA312C75B850A82850B83A3858214C6
:1040A000858315E5102406F50EE51112C43A8882C1
:1040B0008983E0FAA3E0F9EA2400F516E439F5175C
:1040C0007816121380010000280128EDC0070002B5
:1040D00028C4C1032834C10029EEC2012916C30235
:1040E00029BDC20329EEC204297FC3DEC3EE4F708F
:1040F0003E850E82850F8312C454FAE9FB8A828BB7
:1041000083E0850C82850D8312C4901212F68A8298
:104110008B83A312BF2AFDAA0AAB0B1232D2740200
:10412000121084800375120EA912740502C8BD75A1
:10413000120B80F4EE4F70F7850C82850D837401AD
:10414000F012C469850A82850B83F07C007D0085AE
:104150001082851183A3A3A3A3E02401FAA3E03472
:1041600000FB122A08EA4B60418A828B83E024021A
:10417000F8850C82850D83E028F0EA2404F8EB34FE
:1041800000F988828983E085148285158312C4A290
:1041900012C4901212F68A828B8312BF24E50A247D
:1041A00003FAE50B3400FB02C11B850C82850D83ED
:1041B000E02404F07C047D007900AA14AB151232CF
:1041C000EA02C128EE4F600302C12F12C469FEA3A8
:1041D000E0FF850C82850D837404F0EE850A8285EC
:1041E0000B83F0EF851482851583F074031210D7CA
:1041F000AC82AD83EEFAEFFB12C536700302C29AB1
:104200008A828B83A3A312C45F74011210D78582A4
:104210001085831178101212F674051210D712133C
:104220000D7CFF7DFF122A0E74041210848B11EA9C
:1042300045117033850E82850F8312C43F1212F62A
:10424000850E82850F83A312130D7C027D007A6E8A
:104250007B8512283A7404121084E9700A740112E2
:1042600010D774FFF0A3F08E828F83E06402703465
:10427000750E02750F00780E1212F68E828F831261
:10428000BF24E50A2404FAE50B12B8501210848505
:104290000C82850D83E02402800974011210D7EE90
:1042A000F0A3EFF074011210D712C450F074011291
:1042B00010D7A312C448A3A3A3F002C128EE4F60F5
:1042C0000302C12F850E82850F8312BF25AA18AB6A
:1042D00019122B40850C82850D837402F0EA850A41
:1042E00082850B83F0851482851583EB80CBEE4F9E
:1042F000600302C12F12C469F8A3E0F9850C82851E
:104300000D837402F0E8850A82850B83F0E9851439
:104310008285158380A3850E82850F8312BBCA1206
:1043200032CCEAFC8C82A882C39EE49F404BE86EAC
:104330007001EF70047C00801F851A82851B83E06A
:10434000FAEE2AFAEF3400FBC3EA98EB940050032C
:10435000E08004EECCC39CFCEC850C82850D83F0E0
:104360008C0C750D00780C1212F6850E82850F8369
:10437000E02EFCA3E03F02C11675120702C128EE31
:104380004F600302C12F850E82850F8312C75B85A4
:104390000C82850D837407F08882898312C44812C9
:1043A000C430E0851482851583F0E82402FAE934EC
:1043B00000FB8A828B8312C44812C48112C450A3AA
:1043C00012C48A12C459F0E82405F8E93400F988C7
:1043D00082898312C459A312C4A2A302C2B6741D57
:1043E0001210D712C541700302C12512C75B880E97
:1043F000890FE8450F700302C1258E128F137812C2
:104400001212F6780C1212F6780A1212F6740612CC
:1044100010D7E0F9AC10AD11AA18AB19850E828542
:104420000F831210E17406121084E9F51202C128FC
:10443000F088828983A322F50EEF3400F50F22E085
:10444000F510751100781022E0850A82850B832211
:1044500012C4A92212C75FE82212C4A9A3A322A3EF
:10446000A3A3A3E0FEA3E0FF22850E82850F83E0D5
:10447000F8A3E0F5838882E022E0F50AA3E0F50BDB
:1044800022A3A3F08A828B83A32212B13CA3A3228E
:10449000F08A828B8312C49922E0F50C750D0078A6
:1044A0000C2212C43012C4A922E0850A82850B8333
:1044B000A3A32274EE1210E374FE12106E8A0C8B0A
:1044C0000DECFAEDFB74141210D7E0F512A3E0F531
:1044D0001374161210D7E0FE74181210D7E0F510FE
:1044E000A3E0F511851A82851B83AC82AD8312C5CA
:1044F00036603E851A82851B8312C541602FA3A3B7
:1045000012C479E50A450B602478101212F678126D
:104510001212F6EEF9AC0EAD0FAA0CAB0D850A82A5
:10452000850B831210E174041210848006790E80CA
:1045300002790102B976122A088A0E8B0FEA450F1A
:104540002212BBCE12C54822122AD48A828B83E55E
:104550008245832274F61210E374FE12106E740CFE
:104560001210D712C454851A82851B83F07401126D
:1045700010D7E9F0E4F50AF50B780A1212F6750A7D
:1045800002780A1212F674041210D785820A858303
:104590000B780A1212F6122B287406121084740279
:1045A000121084806474F71210E3EAFEEBFF890AAC
:1045B0007C977D0C122B40EA5402600BA90AEEFA9C
:1045C000EFFB1229FC8002790102BF9274F61210EF
:1045D000E374FF6A700374FF6B701C7B00EB75F073
:1045E00003A4F8A9F0EC28F8ED39F912C60E0BEB8C
:1045F000C39402501480E6122B108A0A8B0BA80A6F
:10460000A90BE849600312C60E7F020211B5888229
:10461000898374FF12B13AE4F02274F61210E312A7
:104620002B108A828B83E58245836006A3A3E0FA80
:1046300080027A007B0080D174F21210E38A0A8B28
:104640000BECFEEDFF740E1210D7E0F50C12C67ED7
:10465000701CEEFCEFFD7AFF7BFF12C67E700479C2
:1046600011801688828983E50AF0A3E50BF0888221
:104670008983A3A3E50CF079007F060211B5122B04
:10468000108A0E8B0FA80EA90FE8492274EE1210A3
:10469000E3EAFEEBFF8C0A8D0B890E74121210D721
:1046A00012C75B74141210D712BF2574161210D7DC
:1046B00012BBCA750F00EC4D600302C74F74026550
:1046C0000E600302C74A8882898312BF2AF9EC244C
:1046D00000F510E439F511EAF4F8EBF4F9EC58F8C8
:1046E000E51159F9E849705DE50A2406F8E50B344F
:1046F00000F9880C890D8882F58312B85F122B406F
:104700008A128B13E51065127004E511651360427F
:1047100078101212F6850C82850D8312B85F122B69
:10472000467402121084E9F50F702778101212F601
:10473000850A82850B83A3A312B85D122B5E7402D7
:10474000121084800D750F808008750F0D80037521
:104750000F0BA90F02BE308E828F8312C75F22E03B
:10476000F8A3E0F92274E81210E374E712106E85E2
:104770001A82851B83EAF0A3EBF08C188D1989103F
:1047800074311210D7E0F514A3E0F515743312104C
:10479000D7E0F516A3E0F51774351210D7E0F51140
:1047A000750A00750B00E50B75F003A4F8A9F085F8
:1047B0001A82851B8312C8CFE0F47003A3E0F47063
:1047C0000302C8ADEE2402F50EEF12C8C5E0700377
:1047D00002C8AD85180C85190D780C1212F6AC16AE
:1047E000AD17AA14AB15122AC874021210848A0CD1
:1047F0008B0DEA450D700302C8ADE4F512F5137890
:10480000121212F674061210D7858212858313785D
:10481000121212F674091210D7858212858313784A
:10482000121212F6851482851583A3A3A3A3121373
:104830000D7914AC0CAD0D8E828F8312C8E312106B
:1048400084E97069850C82850D83A3A3A3A312C795
:104850005B74021210D712BF3C850E82850F83E075
:10486000A2E05018A91074021210D7AC82AD838E4A
:10487000828F8312BBCA122A20E9420A850E8285E2
:104880000F83E0A2E15026E511F50C780C1212FA24
:10489000A91074031210D7AC82AD838E828F83125D
:1048A000BBCA122A1A7401121084E9420A050BE5E8
:1048B0000BC39402500302C7A6A90A7419121084EC
:1048C0007F100211B53400F50F850E82F58322E0CA
:1048D00028FEA3E039FF8E828F83227916850C8211
:1048E000850D8312BBCE122B2274082274F2121093
:1048F000E3EAFEEBFF890D7401650D600E7402653D
:104900000D70637901122D38E9705BEEFAEFFB123E
:10491000C9696047750C00800B7C177D0079001217
:1049200032EA050C900C64E0F8E50CC3985021E5E0
:104930000C75F017A4F8A9F0850A82850B83A3A350
:10494000E028FAA3E039FB8A828B8312B28B70C90C
:10495000850A82850B8374FFF0A3F07C977D0CEEB3
:10496000FAEFFB122B3A02C679122B0A8A0A8B0B3A
:10497000EA450B2274F21210E38A0A8B0BECFEED6F
:10498000FF740E1210D712C011901825E0F4603D8C
:104990007A097B001232FCEA4B60328A828B837484
:1049A000B1F0A3E412C483A312C481A3E50AF0A367
:1049B000E50B12C9D0EEF0A3EF12C9D0A3A3E50C0A
:1049C000F0A3E50DF0901825E0F912330802C6793E
:1049D000F08A828B83A3A3A3A3A322C082C0839067
:1049E00061907404F0A37448F0A37402F0906180A5
:1049F0007440F09061BC7403F09061877419F0907A
:104A00006265741BF090619C740DF090619A743330
:104A1000F0A37455F09061A0743AF0900EDBE0645E
:104A2000017009C291900D4574678005900D457421
:104A300061F09037A2E493906186F09037A4E493FC
:104A4000F46027E493540FF8906185E0686012E504
:104A5000C654804449F5C6E59E547F644970F8E821
:104A6000F053C680E59E547F70FA790512309802A3
:104A7000CC1DC082C083E9540FF9906185E0696064
:104A800012E5C654804449F5C6E59E547F644970DA
:104A9000F8E9F053C680E59E547F70FA02CC1DC041
