:020000040000FA
:1000000002073E020803FFFFFFFFFF02080BFFFF8E
:10001000FFFFFF020813FFFFFFFFFF02081BFFFFA8
:10002000FFFFFF020823FFFFFFFFFF02082BFFFF78
:10003000FFFFFF020833FFFFFFFFFF02083BFFFF48
:10004000FFFFFF020843FFFFFFFFFF02084BFFFF18
:10005000FFFFFF020853FFFFFFFFFF02085BFFFFE8
:10006000FFFFFF020863FFFFFFFFFF02086BFFFFB8
:10007000FFFFFF020873FFFFFFFFFF02087BFFFF88
:10008000FFFFFF020883FFFFFFFFFF02088B74F7EB
:100090001205E474FC1206F5750804750900780869
:1000A00012071E740212075AAC82AD837A907B004D
:1000B00079011204E874021206C4851882E0F8A3DC
:1000C000E0F9E8496021851882851983E0F470031E
:1000D000A3E0F46012740212075AE0687003A3E010
:1000E00069700479018002790074041206C47F02E9
:1000F00002064A74F51205E474FF1206F58002E464
:10010000F07C017D00851882851983AA82AB8379F2
:10011000001204418B09EA4509700302024690026D
:1001200083E0600F14601E1460431470030201B07A
:1001300002023C851882851983E064FE70C3900238
:1001400083740180BB851882851983E0C394FC9079
:10015000028350AB7402F0900281E4F0900280F0D0
:10016000851882851983E02403900282F085188225
:10017000851983E0F8900280E068F085188285197F
:1001800083E0C0E0900281E0F8748128F582740178
:100190003400F583D0E0F0900281E004F0F89002A2
:1001A00082E068600302010190028374030201008F
:1001B000E4F0900280E0F8851882851983E0686099
:1001C00003020101900182E0541F640D60030201EB
:1001D00001120252750800900181E02403F50A7EA5
:1001E00000601A78807901FF88828983A3E0620821
:1001F00088828983A3A882A9831FEF70EBC008853A
:100200000A0874812508F58274013400F583D0E072
:10021000F0900183E064837007A3E07003050A0E89
:1002200090018074FEF0E50A2402FCE43400FD7ABB
:10023000807B01790012045DEEF9800CC2AF75C9B4
:10024000AB75C95B80FE790074011206C47F04029D
:10025000064A74F51205E474FC1206F5900185E077
:10026000FA900184E0FB8B08EAF8E4C8F9EB24007B
:10027000E93402F5097F017E00900183E014600FEC
:1002800014604514607E1470030203B70203B6EBDA
:10029000F8E5095401F9E8497011880A85090B74D9
:1002A00009780A12072FA90A1205CD750A108E0BBC
:1002B000780A12071E7C867D01AA08AB091205691F
:1002C00074021206C40203B77F43EA900186F0EB82
:1002D000900185F0750A40880B780A12071E7C870A
:1002E0007D01EBF50AE5095401F50B7402780A1259
:1002F000070BAA0AAB0B7409780812072FA908127A
:1003000004E880BC7508048809780812071E740286
:1003100012075AAC82AD837A907B0079011204E80F
:1003200074021206C4740212075AE0F8A3E0F985B9
:100330001882851983E0687003A3E069605B851803
:1003400082851983E0F8A3E0F9740212075AE8F0F5
:10035000A3E9F085188285198374FFF0A3F08F0854
:10036000780812071E740212075AAC82AD837A24F1
:100370007B0212056974021206C47508047808121B
:10038000071E740212075AAC82AD837A907B007903
:10039000011204E874021206C4851882851983E0EC
:1003A000F8A3E0F9740212075AE0687003A3E06949
:1003B00060057E0780010EEF900181F0900183E0DF
:1003C000D2E7F0EEA3F0740402024A74F81205E4D6
:1003D00075080075F88075FB8043F10243F4C05343
:1003E000FF3F43FF4075FAD875FC0B75FB0275F8AB
:1003F000C08036A2F95028C2F990028CE0F8900231
:100400008EE028FAA3E034008A82F583E0F5F990C3
:10041000028CE004F00890028DE0687002E4F0A223
:10042000FA50061200F3E9420890028DE070C4E52C
:100430000860ECA2F840E8C2AF75C9AB75C95B8033
:10044000FEC082C083A2FA500BE5F98A828B83F04A
:100450007A0180027A007B00D083D08222C082C0E1
:100460008390028EEAF0A3EBF0EC90028DF0900204
:100470008C7401F0C2F98A828B83E0F5F9ECFAED15
:10048000FB80D553BEFBE59DA2E650FAE5C654803D
:100490004449F5C6E59E547F644970F853C67FE52C
:1004A0009EA2E740FA53C680E59E547F70FA43BE91
:1004B000049062707408F07402F5D575D48412004B
:1004C0008EE96401700D020800C2AF75C9AB75C931
:1004D0005B80FE794E1206DEE960F81203CBC2AFF4
:1004E00075C9AB75C95B80FE74F51205E4890874A3
:1004F0000B12075AE0FEA3E0FF740F5508F50A75CA
:100500000B00740B780A12070BEA2400F8EB348016
:10051000F9E82400E9350BF9E5C7FBA2AFE433F5B0
:1005200009C2AFE508C4540FFAE5C754F84AF5C745
:10053000EE4F602888828983E08C828D83F08882E8
:100540008983A3A882A9838C828D83A3AC82AD8387
:10055000EE24FF1EEF34FFFFEE4F70D88BC7E50986
:10056000A2E092AF7F0402064A74F71205E4740910
:1005700012075AE0F508A3E0F509ED900284F0ECCB
:10058000A3F0A37462F0A37473F0A3E0541FF0E52A
:1005900008333354FCA3F07406780812072FE508DB
:1005A000900288F090028A7412F0A37442F053D142
:1005B000FE75D601EA906271F0EBA3F0906270E0F4
:1005C000D2E1F0E0A2E740FB7F0202064AC082C00F
:1005D00083E9C333906272F0906270E0D2E0F0D0B1
:1005E00083D082222518C582C0E0E51934FFC58377
:1005F000C0E0E518C3958224F910AF0885831985FA
:1006000082188008858319858218D2AFCEF0A3E5C1
:1006100020F0A37808E608F0A3DEFAEFF0A3E58166
:1006200024FBF8E608F0A3E608F0A30808E608F0C3
:10063000A3E608F0A315811581D0E0FED0E0F815FF
:10064000811581E8C0E0EEC0E0228519838518821B
:10065000E0A3FEE0A3F5207808E0A3F608DFFAE0C7
:10066000A3FFE0A3C0E0E0A3C0E0E0A3C0E0E0A3FC
:10067000C0E010AF0885821885831980088582182C
:10068000858319D2AFD083D08222120769B90003C3
:100690000206A3E4900180781179028002F0A3D8C9
:1006A000FCD9FA1204831207642518F58210AF08EA
:1006B000F518400215198008F51840021519D2AF37
:1006C00085198322C0D0251810AF08F518500205EF
:1006D000198008F51850020519D2AFD0D022E9F8D8
:1006E00075B60FE5B4A2E750FAE8C395BB5003799D
:1006F0000122790022251810AF08F51840021519BB
:100700008008F51840021519D2AF22700422600D3E
:1007100018C6C333C608C633C6D5E0F4182274021F
:100720008000C0E0F4041206A9D0E012074D226058
:100730000C08C6C313C618C613C6D5E0F42275D07C
:100740000075813F75188075190102068ACAC0E0DC
:10075000E6F0A308DAFAD0E0FA222518F582E435AB
:1007600019F5832200000080FB790122FFFFFFFFC3
:10077000FFFFFFFFFFFFFFFFFFFFFFFFFFFFFFFF89
:10078000FFFFFFFFFFFFFFFFFFFFFFFFFFFFFFFF79
:10079000FFFFFFFFFFFFFFFFFFFFFFFFFFFFFFFF69
:1007A000FFFFFFFFFFFFFFFFFFFFFFFFFFFFFFFF59
:1007B000FFFFFFFFFFFFFFFFFFFFFFFFFFFFFFFF49
:1007C000FFFFFFFFFFFFFFFFFFFFFFFFFFFFFFFF39
:1007D000FFFFFFFFFFFFFFFFFFFFFFFFFFFFFFFF29
:1007E000FFFFFFFFFFFFFFFFFFFFFFFFFFFFFFFF19
:1007F000FFFFFFFFFFFFFFFFFFFFFFFFFFFFFFFF09
:040000050000073EB2
:00000001FF
